{
	"contracts/mappings.sol": {
		"Mapping": {
			"abi": [
				{
					"inputs": [],
					"name": "addUser",
					"outputs": [],
					"stateMutability": "nonpayable",
					"type": "function"
				},
				{
					"inputs": [],
					"name": "getUser",
					"outputs": [
						{
							"internalType": "string",
							"name": "",
							"type": "string"
						}
					],
					"stateMutability": "view",
					"type": "function"
				},
				{
					"inputs": [
						{
							"internalType": "address",
							"name": "",
							"type": "address"
						}
					],
					"name": "users",
					"outputs": [
						{
							"internalType": "string",
							"name": "",
							"type": "string"
						}
					],
					"stateMutability": "view",
					"type": "function"
				}
			],
			"devdoc": {
				"kind": "dev",
				"methods": {},
				"version": 1
			},
			"evm": {
				"assembly": "    /* \"contracts/mappings.sol\":25:278  contract Mapping {... */\n  mstore(0x40, 0x80)\n  callvalue\n  dup1\n  iszero\n  tag_1\n  jumpi\n  0x00\n  dup1\n  revert\ntag_1:\n  pop\n  dataSize(sub_0)\n  dup1\n  dataOffset(sub_0)\n  0x00\n  codecopy\n  0x00\n  return\nstop\n\nsub_0: assembly {\n        /* \"contracts/mappings.sol\":25:278  contract Mapping {... */\n      mstore(0x40, 0x80)\n      callvalue\n      dup1\n      iszero\n      tag_1\n      jumpi\n      0x00\n      dup1\n      revert\n    tag_1:\n      pop\n      jumpi(tag_2, lt(calldatasize, 0x04))\n      shr(0xe0, calldataload(0x00))\n      dup1\n      0x455c928c\n      eq\n      tag_3\n      jumpi\n      dup1\n      0x832880e7\n      eq\n      tag_4\n      jumpi\n      dup1\n      0xa87430ba\n      eq\n      tag_5\n      jumpi\n    tag_2:\n      0x00\n      dup1\n      revert\n        /* \"contracts/mappings.sol\":100:175  function addUser() public {... */\n    tag_3:\n      tag_6\n      tag_7\n      jump\t// in\n    tag_6:\n      stop\n        /* \"contracts/mappings.sol\":181:276  function getUser() public view returns(string memory) {... */\n    tag_4:\n      tag_8\n      tag_9\n      jump\t// in\n    tag_8:\n      mload(0x40)\n      tag_10\n      swap2\n      swap1\n      tag_11\n      jump\t// in\n    tag_10:\n      mload(0x40)\n      dup1\n      swap2\n      sub\n      swap1\n      return\n        /* \"contracts/mappings.sol\":49:88  mapping(address => string) public users */\n    tag_5:\n      tag_12\n      0x04\n      dup1\n      calldatasize\n      sub\n      dup2\n      add\n      swap1\n      tag_13\n      swap2\n      swap1\n      tag_14\n      jump\t// in\n    tag_13:\n      tag_15\n      jump\t// in\n    tag_12:\n      mload(0x40)\n      tag_16\n      swap2\n      swap1\n      tag_11\n      jump\t// in\n    tag_16:\n      mload(0x40)\n      dup1\n      swap2\n      sub\n      swap1\n      return\n        /* \"contracts/mappings.sol\":100:175  function addUser() public {... */\n    tag_7:\n        /* \"contracts/mappings.sol\":136:168  users[msg.sender] = \"nandeeswar\" */\n      mload(0x40)\n      dup1\n      0x40\n      add\n      0x40\n      mstore\n      dup1\n      0x0a\n      dup2\n      mstore\n      0x20\n      add\n      0x6e616e6465657377617200000000000000000000000000000000000000000000\n      dup2\n      mstore\n      pop\n        /* \"contracts/mappings.sol\":136:141  users */\n      0x00\n        /* \"contracts/mappings.sol\":136:153  users[msg.sender] */\n      dup1\n        /* \"contracts/mappings.sol\":142:152  msg.sender */\n      caller\n        /* \"contracts/mappings.sol\":136:153  users[msg.sender] */\n      0xffffffffffffffffffffffffffffffffffffffff\n      and\n      0xffffffffffffffffffffffffffffffffffffffff\n      and\n      dup2\n      mstore\n      0x20\n      add\n      swap1\n      dup2\n      mstore\n      0x20\n      add\n      0x00\n      keccak256\n        /* \"contracts/mappings.sol\":136:168  users[msg.sender] = \"nandeeswar\" */\n      swap1\n      dup2\n      tag_18\n      swap2\n      swap1\n      tag_19\n      jump\t// in\n    tag_18:\n      pop\n        /* \"contracts/mappings.sol\":100:175  function addUser() public {... */\n      jump\t// out\n        /* \"contracts/mappings.sol\":181:276  function getUser() public view returns(string memory) {... */\n    tag_9:\n        /* \"contracts/mappings.sol\":220:233  string memory */\n      0x60\n        /* \"contracts/mappings.sol\":252:257  users */\n      0x00\n        /* \"contracts/mappings.sol\":252:269  users[msg.sender] */\n      dup1\n        /* \"contracts/mappings.sol\":258:268  msg.sender */\n      caller\n        /* \"contracts/mappings.sol\":252:269  users[msg.sender] */\n      0xffffffffffffffffffffffffffffffffffffffff\n      and\n      0xffffffffffffffffffffffffffffffffffffffff\n      and\n      dup2\n      mstore\n      0x20\n      add\n      swap1\n      dup2\n      mstore\n      0x20\n      add\n      0x00\n      keccak256\n        /* \"contracts/mappings.sol\":245:269  return users[msg.sender] */\n      dup1\n      sload\n      tag_21\n      swap1\n      tag_22\n      jump\t// in\n    tag_21:\n      dup1\n      0x1f\n      add\n      0x20\n      dup1\n      swap2\n      div\n      mul\n      0x20\n      add\n      mload(0x40)\n      swap1\n      dup2\n      add\n      0x40\n      mstore\n      dup1\n      swap3\n      swap2\n      swap1\n      dup2\n      dup2\n      mstore\n      0x20\n      add\n      dup3\n      dup1\n      sload\n      tag_23\n      swap1\n      tag_22\n      jump\t// in\n    tag_23:\n      dup1\n      iszero\n      tag_24\n      jumpi\n      dup1\n      0x1f\n      lt\n      tag_25\n      jumpi\n      0x0100\n      dup1\n      dup4\n      sload\n      div\n      mul\n      dup4\n      mstore\n      swap2\n      0x20\n      add\n      swap2\n      jump(tag_24)\n    tag_25:\n      dup3\n      add\n      swap2\n      swap1\n      0x00\n      mstore\n      keccak256(0x00, 0x20)\n      swap1\n    tag_26:\n      dup2\n      sload\n      dup2\n      mstore\n      swap1\n      0x01\n      add\n      swap1\n      0x20\n      add\n      dup1\n      dup4\n      gt\n      tag_26\n      jumpi\n      dup3\n      swap1\n      sub\n      0x1f\n      and\n      dup3\n      add\n      swap2\n    tag_24:\n      pop\n      pop\n      pop\n      pop\n      pop\n      swap1\n      pop\n        /* \"contracts/mappings.sol\":181:276  function getUser() public view returns(string memory) {... */\n      swap1\n      jump\t// out\n        /* \"contracts/mappings.sol\":49:88  mapping(address => string) public users */\n    tag_15:\n      mstore(0x20, 0x00)\n      dup1\n      0x00\n      mstore\n      keccak256(0x00, 0x40)\n      0x00\n      swap2\n      pop\n      swap1\n      pop\n      dup1\n      sload\n      tag_27\n      swap1\n      tag_22\n      jump\t// in\n    tag_27:\n      dup1\n      0x1f\n      add\n      0x20\n      dup1\n      swap2\n      div\n      mul\n      0x20\n      add\n      mload(0x40)\n      swap1\n      dup2\n      add\n      0x40\n      mstore\n      dup1\n      swap3\n      swap2\n      swap1\n      dup2\n      dup2\n      mstore\n      0x20\n      add\n      dup3\n      dup1\n      sload\n      tag_28\n      swap1\n      tag_22\n      jump\t// in\n    tag_28:\n      dup1\n      iszero\n      tag_29\n      jumpi\n      dup1\n      0x1f\n      lt\n      tag_30\n      jumpi\n      0x0100\n      dup1\n      dup4\n      sload\n      div\n      mul\n      dup4\n      mstore\n      swap2\n      0x20\n      add\n      swap2\n      jump(tag_29)\n    tag_30:\n      dup3\n      add\n      swap2\n      swap1\n      0x00\n      mstore\n      keccak256(0x00, 0x20)\n      swap1\n    tag_31:\n      dup2\n      sload\n      dup2\n      mstore\n      swap1\n      0x01\n      add\n      swap1\n      0x20\n      add\n      dup1\n      dup4\n      gt\n      tag_31\n      jumpi\n      dup3\n      swap1\n      sub\n      0x1f\n      and\n      dup3\n      add\n      swap2\n    tag_29:\n      pop\n      pop\n      pop\n      pop\n      pop\n      dup2\n      jump\t// out\n        /* \"#utility.yul\":7:106   */\n    tag_32:\n        /* \"#utility.yul\":59:65   */\n      0x00\n        /* \"#utility.yul\":93:98   */\n      dup2\n        /* \"#utility.yul\":87:99   */\n      mload\n        /* \"#utility.yul\":77:99   */\n      swap1\n      pop\n        /* \"#utility.yul\":7:106   */\n      swap2\n      swap1\n      pop\n      jump\t// out\n        /* \"#utility.yul\":112:281   */\n    tag_33:\n        /* \"#utility.yul\":196:207   */\n      0x00\n        /* \"#utility.yul\":230:236   */\n      dup3\n        /* \"#utility.yul\":225:228   */\n      dup3\n        /* \"#utility.yul\":218:237   */\n      mstore\n        /* \"#utility.yul\":270:274   */\n      0x20\n        /* \"#utility.yul\":265:268   */\n      dup3\n        /* \"#utility.yul\":261:275   */\n      add\n        /* \"#utility.yul\":246:275   */\n      swap1\n      pop\n        /* \"#utility.yul\":112:281   */\n      swap3\n      swap2\n      pop\n      pop\n      jump\t// out\n        /* \"#utility.yul\":287:426   */\n    tag_34:\n        /* \"#utility.yul\":376:382   */\n      dup3\n        /* \"#utility.yul\":371:374   */\n      dup2\n        /* \"#utility.yul\":366:369   */\n      dup4\n        /* \"#utility.yul\":360:383   */\n      mcopy\n        /* \"#utility.yul\":417:418   */\n      0x00\n        /* \"#utility.yul\":408:414   */\n      dup4\n        /* \"#utility.yul\":403:406   */\n      dup4\n        /* \"#utility.yul\":399:415   */\n      add\n        /* \"#utility.yul\":392:419   */\n      mstore\n        /* \"#utility.yul\":287:426   */\n      pop\n      pop\n      pop\n      jump\t// out\n        /* \"#utility.yul\":432:534   */\n    tag_35:\n        /* \"#utility.yul\":473:479   */\n      0x00\n        /* \"#utility.yul\":524:526   */\n      0x1f\n        /* \"#utility.yul\":520:527   */\n      not\n        /* \"#utility.yul\":515:517   */\n      0x1f\n        /* \"#utility.yul\":508:513   */\n      dup4\n        /* \"#utility.yul\":504:518   */\n      add\n        /* \"#utility.yul\":500:528   */\n      and\n        /* \"#utility.yul\":490:528   */\n      swap1\n      pop\n        /* \"#utility.yul\":432:534   */\n      swap2\n      swap1\n      pop\n      jump\t// out\n        /* \"#utility.yul\":540:917   */\n    tag_36:\n        /* \"#utility.yul\":628:631   */\n      0x00\n        /* \"#utility.yul\":656:695   */\n      tag_68\n        /* \"#utility.yul\":689:694   */\n      dup3\n        /* \"#utility.yul\":656:695   */\n      tag_32\n      jump\t// in\n    tag_68:\n        /* \"#utility.yul\":711:782   */\n      tag_69\n        /* \"#utility.yul\":775:781   */\n      dup2\n        /* \"#utility.yul\":770:773   */\n      dup6\n        /* \"#utility.yul\":711:782   */\n      tag_33\n      jump\t// in\n    tag_69:\n        /* \"#utility.yul\":704:782   */\n      swap4\n      pop\n        /* \"#utility.yul\":791:856   */\n      tag_70\n        /* \"#utility.yul\":849:855   */\n      dup2\n        /* \"#utility.yul\":844:847   */\n      dup6\n        /* \"#utility.yul\":837:841   */\n      0x20\n        /* \"#utility.yul\":830:835   */\n      dup7\n        /* \"#utility.yul\":826:842   */\n      add\n        /* \"#utility.yul\":791:856   */\n      tag_34\n      jump\t// in\n    tag_70:\n        /* \"#utility.yul\":881:910   */\n      tag_71\n        /* \"#utility.yul\":903:909   */\n      dup2\n        /* \"#utility.yul\":881:910   */\n      tag_35\n      jump\t// in\n    tag_71:\n        /* \"#utility.yul\":876:879   */\n      dup5\n        /* \"#utility.yul\":872:911   */\n      add\n        /* \"#utility.yul\":865:911   */\n      swap2\n      pop\n        /* \"#utility.yul\":632:917   */\n      pop\n        /* \"#utility.yul\":540:917   */\n      swap3\n      swap2\n      pop\n      pop\n      jump\t// out\n        /* \"#utility.yul\":923:1236   */\n    tag_11:\n        /* \"#utility.yul\":1036:1040   */\n      0x00\n        /* \"#utility.yul\":1074:1076   */\n      0x20\n        /* \"#utility.yul\":1063:1072   */\n      dup3\n        /* \"#utility.yul\":1059:1077   */\n      add\n        /* \"#utility.yul\":1051:1077   */\n      swap1\n      pop\n        /* \"#utility.yul\":1123:1132   */\n      dup2\n        /* \"#utility.yul\":1117:1121   */\n      dup2\n        /* \"#utility.yul\":1113:1133   */\n      sub\n        /* \"#utility.yul\":1109:1110   */\n      0x00\n        /* \"#utility.yul\":1098:1107   */\n      dup4\n        /* \"#utility.yul\":1094:1111   */\n      add\n        /* \"#utility.yul\":1087:1134   */\n      mstore\n        /* \"#utility.yul\":1151:1229   */\n      tag_73\n        /* \"#utility.yul\":1224:1228   */\n      dup2\n        /* \"#utility.yul\":1215:1221   */\n      dup5\n        /* \"#utility.yul\":1151:1229   */\n      tag_36\n      jump\t// in\n    tag_73:\n        /* \"#utility.yul\":1143:1229   */\n      swap1\n      pop\n        /* \"#utility.yul\":923:1236   */\n      swap3\n      swap2\n      pop\n      pop\n      jump\t// out\n        /* \"#utility.yul\":1323:1440   */\n    tag_38:\n        /* \"#utility.yul\":1432:1433   */\n      0x00\n        /* \"#utility.yul\":1429:1430   */\n      dup1\n        /* \"#utility.yul\":1422:1434   */\n      revert\n        /* \"#utility.yul\":1569:1695   */\n    tag_40:\n        /* \"#utility.yul\":1606:1613   */\n      0x00\n        /* \"#utility.yul\":1646:1688   */\n      0xffffffffffffffffffffffffffffffffffffffff\n        /* \"#utility.yul\":1639:1644   */\n      dup3\n        /* \"#utility.yul\":1635:1689   */\n      and\n        /* \"#utility.yul\":1624:1689   */\n      swap1\n      pop\n        /* \"#utility.yul\":1569:1695   */\n      swap2\n      swap1\n      pop\n      jump\t// out\n        /* \"#utility.yul\":1701:1797   */\n    tag_41:\n        /* \"#utility.yul\":1738:1745   */\n      0x00\n        /* \"#utility.yul\":1767:1791   */\n      tag_79\n        /* \"#utility.yul\":1785:1790   */\n      dup3\n        /* \"#utility.yul\":1767:1791   */\n      tag_40\n      jump\t// in\n    tag_79:\n        /* \"#utility.yul\":1756:1791   */\n      swap1\n      pop\n        /* \"#utility.yul\":1701:1797   */\n      swap2\n      swap1\n      pop\n      jump\t// out\n        /* \"#utility.yul\":1803:1925   */\n    tag_42:\n        /* \"#utility.yul\":1876:1900   */\n      tag_81\n        /* \"#utility.yul\":1894:1899   */\n      dup2\n        /* \"#utility.yul\":1876:1900   */\n      tag_41\n      jump\t// in\n    tag_81:\n        /* \"#utility.yul\":1869:1874   */\n      dup2\n        /* \"#utility.yul\":1866:1901   */\n      eq\n        /* \"#utility.yul\":1856:1919   */\n      tag_82\n      jumpi\n        /* \"#utility.yul\":1915:1916   */\n      0x00\n        /* \"#utility.yul\":1912:1913   */\n      dup1\n        /* \"#utility.yul\":1905:1917   */\n      revert\n        /* \"#utility.yul\":1856:1919   */\n    tag_82:\n        /* \"#utility.yul\":1803:1925   */\n      pop\n      jump\t// out\n        /* \"#utility.yul\":1931:2070   */\n    tag_43:\n        /* \"#utility.yul\":1977:1982   */\n      0x00\n        /* \"#utility.yul\":2015:2021   */\n      dup2\n        /* \"#utility.yul\":2002:2022   */\n      calldataload\n        /* \"#utility.yul\":1993:2022   */\n      swap1\n      pop\n        /* \"#utility.yul\":2031:2064   */\n      tag_84\n        /* \"#utility.yul\":2058:2063   */\n      dup2\n        /* \"#utility.yul\":2031:2064   */\n      tag_42\n      jump\t// in\n    tag_84:\n        /* \"#utility.yul\":1931:2070   */\n      swap3\n      swap2\n      pop\n      pop\n      jump\t// out\n        /* \"#utility.yul\":2076:2405   */\n    tag_14:\n        /* \"#utility.yul\":2135:2141   */\n      0x00\n        /* \"#utility.yul\":2184:2186   */\n      0x20\n        /* \"#utility.yul\":2172:2181   */\n      dup3\n        /* \"#utility.yul\":2163:2170   */\n      dup5\n        /* \"#utility.yul\":2159:2182   */\n      sub\n        /* \"#utility.yul\":2155:2187   */\n      slt\n        /* \"#utility.yul\":2152:2271   */\n      iszero\n      tag_86\n      jumpi\n        /* \"#utility.yul\":2190:2269   */\n      tag_87\n      tag_38\n      jump\t// in\n    tag_87:\n        /* \"#utility.yul\":2152:2271   */\n    tag_86:\n        /* \"#utility.yul\":2310:2311   */\n      0x00\n        /* \"#utility.yul\":2335:2388   */\n      tag_88\n        /* \"#utility.yul\":2380:2387   */\n      dup5\n        /* \"#utility.yul\":2371:2377   */\n      dup3\n        /* \"#utility.yul\":2360:2369   */\n      dup6\n        /* \"#utility.yul\":2356:2378   */\n      add\n        /* \"#utility.yul\":2335:2388   */\n      tag_43\n      jump\t// in\n    tag_88:\n        /* \"#utility.yul\":2325:2388   */\n      swap2\n      pop\n        /* \"#utility.yul\":2281:2398   */\n      pop\n        /* \"#utility.yul\":2076:2405   */\n      swap3\n      swap2\n      pop\n      pop\n      jump\t// out\n        /* \"#utility.yul\":2411:2591   */\n    tag_44:\n        /* \"#utility.yul\":2459:2536   */\n      0x4e487b7100000000000000000000000000000000000000000000000000000000\n        /* \"#utility.yul\":2456:2457   */\n      0x00\n        /* \"#utility.yul\":2449:2537   */\n      mstore\n        /* \"#utility.yul\":2556:2560   */\n      0x41\n        /* \"#utility.yul\":2553:2554   */\n      0x04\n        /* \"#utility.yul\":2546:2561   */\n      mstore\n        /* \"#utility.yul\":2580:2584   */\n      0x24\n        /* \"#utility.yul\":2577:2578   */\n      0x00\n        /* \"#utility.yul\":2570:2585   */\n      revert\n        /* \"#utility.yul\":2597:2777   */\n    tag_45:\n        /* \"#utility.yul\":2645:2722   */\n      0x4e487b7100000000000000000000000000000000000000000000000000000000\n        /* \"#utility.yul\":2642:2643   */\n      0x00\n        /* \"#utility.yul\":2635:2723   */\n      mstore\n        /* \"#utility.yul\":2742:2746   */\n      0x22\n        /* \"#utility.yul\":2739:2740   */\n      0x04\n        /* \"#utility.yul\":2732:2747   */\n      mstore\n        /* \"#utility.yul\":2766:2770   */\n      0x24\n        /* \"#utility.yul\":2763:2764   */\n      0x00\n        /* \"#utility.yul\":2756:2771   */\n      revert\n        /* \"#utility.yul\":2783:3103   */\n    tag_22:\n        /* \"#utility.yul\":2827:2833   */\n      0x00\n        /* \"#utility.yul\":2864:2865   */\n      0x02\n        /* \"#utility.yul\":2858:2862   */\n      dup3\n        /* \"#utility.yul\":2854:2866   */\n      div\n        /* \"#utility.yul\":2844:2866   */\n      swap1\n      pop\n        /* \"#utility.yul\":2911:2912   */\n      0x01\n        /* \"#utility.yul\":2905:2909   */\n      dup3\n        /* \"#utility.yul\":2901:2913   */\n      and\n        /* \"#utility.yul\":2932:2950   */\n      dup1\n        /* \"#utility.yul\":2922:3003   */\n      tag_92\n      jumpi\n        /* \"#utility.yul\":2988:2992   */\n      0x7f\n        /* \"#utility.yul\":2980:2986   */\n      dup3\n        /* \"#utility.yul\":2976:2993   */\n      and\n        /* \"#utility.yul\":2966:2993   */\n      swap2\n      pop\n        /* \"#utility.yul\":2922:3003   */\n    tag_92:\n        /* \"#utility.yul\":3050:3052   */\n      0x20\n        /* \"#utility.yul\":3042:3048   */\n      dup3\n        /* \"#utility.yul\":3039:3053   */\n      lt\n        /* \"#utility.yul\":3019:3037   */\n      dup2\n        /* \"#utility.yul\":3016:3054   */\n      sub\n        /* \"#utility.yul\":3013:3097   */\n      tag_93\n      jumpi\n        /* \"#utility.yul\":3069:3087   */\n      tag_94\n      tag_45\n      jump\t// in\n    tag_94:\n        /* \"#utility.yul\":3013:3097   */\n    tag_93:\n        /* \"#utility.yul\":2834:3103   */\n      pop\n        /* \"#utility.yul\":2783:3103   */\n      swap2\n      swap1\n      pop\n      jump\t// out\n        /* \"#utility.yul\":3109:3250   */\n    tag_46:\n        /* \"#utility.yul\":3158:3162   */\n      0x00\n        /* \"#utility.yul\":3181:3184   */\n      dup2\n        /* \"#utility.yul\":3173:3184   */\n      swap1\n      pop\n        /* \"#utility.yul\":3204:3207   */\n      dup2\n        /* \"#utility.yul\":3201:3202   */\n      0x00\n        /* \"#utility.yul\":3194:3208   */\n      mstore\n        /* \"#utility.yul\":3238:3242   */\n      0x20\n        /* \"#utility.yul\":3235:3236   */\n      0x00\n        /* \"#utility.yul\":3225:3243   */\n      keccak256\n        /* \"#utility.yul\":3217:3243   */\n      swap1\n      pop\n        /* \"#utility.yul\":3109:3250   */\n      swap2\n      swap1\n      pop\n      jump\t// out\n        /* \"#utility.yul\":3256:3349   */\n    tag_47:\n        /* \"#utility.yul\":3293:3299   */\n      0x00\n        /* \"#utility.yul\":3340:3342   */\n      0x20\n        /* \"#utility.yul\":3335:3337   */\n      0x1f\n        /* \"#utility.yul\":3328:3333   */\n      dup4\n        /* \"#utility.yul\":3324:3338   */\n      add\n        /* \"#utility.yul\":3320:3343   */\n      div\n        /* \"#utility.yul\":3310:3343   */\n      swap1\n      pop\n        /* \"#utility.yul\":3256:3349   */\n      swap2\n      swap1\n      pop\n      jump\t// out\n        /* \"#utility.yul\":3355:3462   */\n    tag_48:\n        /* \"#utility.yul\":3399:3407   */\n      0x00\n        /* \"#utility.yul\":3449:3454   */\n      dup3\n        /* \"#utility.yul\":3443:3447   */\n      dup3\n        /* \"#utility.yul\":3439:3455   */\n      shl\n        /* \"#utility.yul\":3418:3455   */\n      swap1\n      pop\n        /* \"#utility.yul\":3355:3462   */\n      swap3\n      swap2\n      pop\n      pop\n      jump\t// out\n        /* \"#utility.yul\":3468:3861   */\n    tag_49:\n        /* \"#utility.yul\":3537:3543   */\n      0x00\n        /* \"#utility.yul\":3587:3588   */\n      0x08\n        /* \"#utility.yul\":3575:3585   */\n      dup4\n        /* \"#utility.yul\":3571:3589   */\n      mul\n        /* \"#utility.yul\":3610:3707   */\n      tag_99\n        /* \"#utility.yul\":3640:3706   */\n      0xffffffffffffffffffffffffffffffffffffffffffffffffffffffffffffffff\n        /* \"#utility.yul\":3629:3638   */\n      dup3\n        /* \"#utility.yul\":3610:3707   */\n      tag_48\n      jump\t// in\n    tag_99:\n        /* \"#utility.yul\":3728:3767   */\n      tag_100\n        /* \"#utility.yul\":3758:3766   */\n      dup7\n        /* \"#utility.yul\":3747:3756   */\n      dup4\n        /* \"#utility.yul\":3728:3767   */\n      tag_48\n      jump\t// in\n    tag_100:\n        /* \"#utility.yul\":3716:3767   */\n      swap6\n      pop\n        /* \"#utility.yul\":3800:3804   */\n      dup1\n        /* \"#utility.yul\":3796:3805   */\n      not\n        /* \"#utility.yul\":3789:3794   */\n      dup5\n        /* \"#utility.yul\":3785:3806   */\n      and\n        /* \"#utility.yul\":3776:3806   */\n      swap4\n      pop\n        /* \"#utility.yul\":3849:3853   */\n      dup1\n        /* \"#utility.yul\":3839:3847   */\n      dup7\n        /* \"#utility.yul\":3835:3854   */\n      and\n        /* \"#utility.yul\":3828:3833   */\n      dup5\n        /* \"#utility.yul\":3825:3855   */\n      or\n        /* \"#utility.yul\":3815:3855   */\n      swap3\n      pop\n        /* \"#utility.yul\":3544:3861   */\n      pop\n      pop\n        /* \"#utility.yul\":3468:3861   */\n      swap4\n      swap3\n      pop\n      pop\n      pop\n      jump\t// out\n        /* \"#utility.yul\":3867:3944   */\n    tag_50:\n        /* \"#utility.yul\":3904:3911   */\n      0x00\n        /* \"#utility.yul\":3933:3938   */\n      dup2\n        /* \"#utility.yul\":3922:3938   */\n      swap1\n      pop\n        /* \"#utility.yul\":3867:3944   */\n      swap2\n      swap1\n      pop\n      jump\t// out\n        /* \"#utility.yul\":3950:4010   */\n    tag_51:\n        /* \"#utility.yul\":3978:3981   */\n      0x00\n        /* \"#utility.yul\":3999:4004   */\n      dup2\n        /* \"#utility.yul\":3992:4004   */\n      swap1\n      pop\n        /* \"#utility.yul\":3950:4010   */\n      swap2\n      swap1\n      pop\n      jump\t// out\n        /* \"#utility.yul\":4016:4158   */\n    tag_52:\n        /* \"#utility.yul\":4066:4075   */\n      0x00\n        /* \"#utility.yul\":4099:4152   */\n      tag_104\n        /* \"#utility.yul\":4117:4151   */\n      tag_105\n        /* \"#utility.yul\":4126:4150   */\n      tag_106\n        /* \"#utility.yul\":4144:4149   */\n      dup5\n        /* \"#utility.yul\":4126:4150   */\n      tag_50\n      jump\t// in\n    tag_106:\n        /* \"#utility.yul\":4117:4151   */\n      tag_51\n      jump\t// in\n    tag_105:\n        /* \"#utility.yul\":4099:4152   */\n      tag_50\n      jump\t// in\n    tag_104:\n        /* \"#utility.yul\":4086:4152   */\n      swap1\n      pop\n        /* \"#utility.yul\":4016:4158   */\n      swap2\n      swap1\n      pop\n      jump\t// out\n        /* \"#utility.yul\":4164:4239   */\n    tag_53:\n        /* \"#utility.yul\":4207:4210   */\n      0x00\n        /* \"#utility.yul\":4228:4233   */\n      dup2\n        /* \"#utility.yul\":4221:4233   */\n      swap1\n      pop\n        /* \"#utility.yul\":4164:4239   */\n      swap2\n      swap1\n      pop\n      jump\t// out\n        /* \"#utility.yul\":4245:4514   */\n    tag_54:\n        /* \"#utility.yul\":4355:4394   */\n      tag_109\n        /* \"#utility.yul\":4386:4393   */\n      dup4\n        /* \"#utility.yul\":4355:4394   */\n      tag_52\n      jump\t// in\n    tag_109:\n        /* \"#utility.yul\":4416:4507   */\n      tag_110\n        /* \"#utility.yul\":4465:4506   */\n      tag_111\n        /* \"#utility.yul\":4489:4505   */\n      dup3\n        /* \"#utility.yul\":4465:4506   */\n      tag_53\n      jump\t// in\n    tag_111:\n        /* \"#utility.yul\":4457:4463   */\n      dup5\n        /* \"#utility.yul\":4450:4454   */\n      dup5\n        /* \"#utility.yul\":4444:4455   */\n      sload\n        /* \"#utility.yul\":4416:4507   */\n      tag_49\n      jump\t// in\n    tag_110:\n        /* \"#utility.yul\":4410:4414   */\n      dup3\n        /* \"#utility.yul\":4403:4508   */\n      sstore\n        /* \"#utility.yul\":4321:4514   */\n      pop\n        /* \"#utility.yul\":4245:4514   */\n      pop\n      pop\n      pop\n      jump\t// out\n        /* \"#utility.yul\":4520:4593   */\n    tag_55:\n        /* \"#utility.yul\":4565:4568   */\n      0x00\n        /* \"#utility.yul\":4520:4593   */\n      swap1\n      jump\t// out\n        /* \"#utility.yul\":4599:4788   */\n    tag_56:\n        /* \"#utility.yul\":4676:4708   */\n      tag_114\n      tag_55\n      jump\t// in\n    tag_114:\n        /* \"#utility.yul\":4717:4782   */\n      tag_115\n        /* \"#utility.yul\":4775:4781   */\n      dup2\n        /* \"#utility.yul\":4767:4773   */\n      dup5\n        /* \"#utility.yul\":4761:4765   */\n      dup5\n        /* \"#utility.yul\":4717:4782   */\n      tag_54\n      jump\t// in\n    tag_115:\n        /* \"#utility.yul\":4652:4788   */\n      pop\n        /* \"#utility.yul\":4599:4788   */\n      pop\n      pop\n      jump\t// out\n        /* \"#utility.yul\":4794:4980   */\n    tag_57:\n        /* \"#utility.yul\":4854:4974   */\n    tag_117:\n        /* \"#utility.yul\":4871:4874   */\n      dup2\n        /* \"#utility.yul\":4864:4869   */\n      dup2\n        /* \"#utility.yul\":4861:4875   */\n      lt\n        /* \"#utility.yul\":4854:4974   */\n      iszero\n      tag_119\n      jumpi\n        /* \"#utility.yul\":4925:4964   */\n      tag_120\n        /* \"#utility.yul\":4962:4963   */\n      0x00\n        /* \"#utility.yul\":4955:4960   */\n      dup3\n        /* \"#utility.yul\":4925:4964   */\n      tag_56\n      jump\t// in\n    tag_120:\n        /* \"#utility.yul\":4898:4899   */\n      0x01\n        /* \"#utility.yul\":4891:4896   */\n      dup2\n        /* \"#utility.yul\":4887:4900   */\n      add\n        /* \"#utility.yul\":4878:4900   */\n      swap1\n      pop\n        /* \"#utility.yul\":4854:4974   */\n      jump(tag_117)\n    tag_119:\n        /* \"#utility.yul\":4794:4980   */\n      pop\n      pop\n      jump\t// out\n        /* \"#utility.yul\":4986:5529   */\n    tag_58:\n        /* \"#utility.yul\":5087:5089   */\n      0x1f\n        /* \"#utility.yul\":5082:5085   */\n      dup3\n        /* \"#utility.yul\":5079:5090   */\n      gt\n        /* \"#utility.yul\":5076:5522   */\n      iszero\n      tag_122\n      jumpi\n        /* \"#utility.yul\":5121:5159   */\n      tag_123\n        /* \"#utility.yul\":5153:5158   */\n      dup2\n        /* \"#utility.yul\":5121:5159   */\n      tag_46\n      jump\t// in\n    tag_123:\n        /* \"#utility.yul\":5205:5234   */\n      tag_124\n        /* \"#utility.yul\":5223:5233   */\n      dup5\n        /* \"#utility.yul\":5205:5234   */\n      tag_47\n      jump\t// in\n    tag_124:\n        /* \"#utility.yul\":5195:5203   */\n      dup2\n        /* \"#utility.yul\":5191:5235   */\n      add\n        /* \"#utility.yul\":5388:5390   */\n      0x20\n        /* \"#utility.yul\":5376:5386   */\n      dup6\n        /* \"#utility.yul\":5373:5391   */\n      lt\n        /* \"#utility.yul\":5370:5419   */\n      iszero\n      tag_125\n      jumpi\n        /* \"#utility.yul\":5409:5417   */\n      dup2\n        /* \"#utility.yul\":5394:5417   */\n      swap1\n      pop\n        /* \"#utility.yul\":5370:5419   */\n    tag_125:\n        /* \"#utility.yul\":5432:5512   */\n      tag_126\n        /* \"#utility.yul\":5488:5510   */\n      tag_127\n        /* \"#utility.yul\":5506:5509   */\n      dup6\n        /* \"#utility.yul\":5488:5510   */\n      tag_47\n      jump\t// in\n    tag_127:\n        /* \"#utility.yul\":5478:5486   */\n      dup4\n        /* \"#utility.yul\":5474:5511   */\n      add\n        /* \"#utility.yul\":5461:5472   */\n      dup3\n        /* \"#utility.yul\":5432:5512   */\n      tag_57\n      jump\t// in\n    tag_126:\n        /* \"#utility.yul\":5091:5522   */\n      pop\n      pop\n        /* \"#utility.yul\":5076:5522   */\n    tag_122:\n        /* \"#utility.yul\":4986:5529   */\n      pop\n      pop\n      pop\n      jump\t// out\n        /* \"#utility.yul\":5535:5652   */\n    tag_59:\n        /* \"#utility.yul\":5589:5597   */\n      0x00\n        /* \"#utility.yul\":5639:5644   */\n      dup3\n        /* \"#utility.yul\":5633:5637   */\n      dup3\n        /* \"#utility.yul\":5629:5645   */\n      shr\n        /* \"#utility.yul\":5608:5645   */\n      swap1\n      pop\n        /* \"#utility.yul\":5535:5652   */\n      swap3\n      swap2\n      pop\n      pop\n      jump\t// out\n        /* \"#utility.yul\":5658:5827   */\n    tag_60:\n        /* \"#utility.yul\":5702:5708   */\n      0x00\n        /* \"#utility.yul\":5735:5786   */\n      tag_130\n        /* \"#utility.yul\":5783:5784   */\n      0x00\n        /* \"#utility.yul\":5779:5785   */\n      not\n        /* \"#utility.yul\":5771:5776   */\n      dup5\n        /* \"#utility.yul\":5768:5769   */\n      0x08\n        /* \"#utility.yul\":5764:5777   */\n      mul\n        /* \"#utility.yul\":5735:5786   */\n      tag_59\n      jump\t// in\n    tag_130:\n        /* \"#utility.yul\":5731:5787   */\n      not\n        /* \"#utility.yul\":5816:5820   */\n      dup1\n        /* \"#utility.yul\":5810:5814   */\n      dup4\n        /* \"#utility.yul\":5806:5821   */\n      and\n        /* \"#utility.yul\":5796:5821   */\n      swap2\n      pop\n        /* \"#utility.yul\":5709:5827   */\n      pop\n        /* \"#utility.yul\":5658:5827   */\n      swap3\n      swap2\n      pop\n      pop\n      jump\t// out\n        /* \"#utility.yul\":5832:6127   */\n    tag_61:\n        /* \"#utility.yul\":5908:5912   */\n      0x00\n        /* \"#utility.yul\":6054:6083   */\n      tag_132\n        /* \"#utility.yul\":6079:6082   */\n      dup4\n        /* \"#utility.yul\":6073:6077   */\n      dup4\n        /* \"#utility.yul\":6054:6083   */\n      tag_60\n      jump\t// in\n    tag_132:\n        /* \"#utility.yul\":6046:6083   */\n      swap2\n      pop\n        /* \"#utility.yul\":6116:6119   */\n      dup3\n        /* \"#utility.yul\":6113:6114   */\n      0x02\n        /* \"#utility.yul\":6109:6120   */\n      mul\n        /* \"#utility.yul\":6103:6107   */\n      dup3\n        /* \"#utility.yul\":6100:6121   */\n      or\n        /* \"#utility.yul\":6092:6121   */\n      swap1\n      pop\n        /* \"#utility.yul\":5832:6127   */\n      swap3\n      swap2\n      pop\n      pop\n      jump\t// out\n        /* \"#utility.yul\":6132:7527   */\n    tag_19:\n        /* \"#utility.yul\":6249:6286   */\n      tag_134\n        /* \"#utility.yul\":6282:6285   */\n      dup3\n        /* \"#utility.yul\":6249:6286   */\n      tag_32\n      jump\t// in\n    tag_134:\n        /* \"#utility.yul\":6351:6369   */\n      0xffffffffffffffff\n        /* \"#utility.yul\":6343:6349   */\n      dup2\n        /* \"#utility.yul\":6340:6370   */\n      gt\n        /* \"#utility.yul\":6337:6393   */\n      iszero\n      tag_135\n      jumpi\n        /* \"#utility.yul\":6373:6391   */\n      tag_136\n      tag_44\n      jump\t// in\n    tag_136:\n        /* \"#utility.yul\":6337:6393   */\n    tag_135:\n        /* \"#utility.yul\":6417:6455   */\n      tag_137\n        /* \"#utility.yul\":6449:6453   */\n      dup3\n        /* \"#utility.yul\":6443:6454   */\n      sload\n        /* \"#utility.yul\":6417:6455   */\n      tag_22\n      jump\t// in\n    tag_137:\n        /* \"#utility.yul\":6502:6569   */\n      tag_138\n        /* \"#utility.yul\":6562:6568   */\n      dup3\n        /* \"#utility.yul\":6554:6560   */\n      dup3\n        /* \"#utility.yul\":6548:6552   */\n      dup6\n        /* \"#utility.yul\":6502:6569   */\n      tag_58\n      jump\t// in\n    tag_138:\n        /* \"#utility.yul\":6596:6597   */\n      0x00\n        /* \"#utility.yul\":6620:6624   */\n      0x20\n        /* \"#utility.yul\":6607:6624   */\n      swap1\n      pop\n        /* \"#utility.yul\":6652:6654   */\n      0x1f\n        /* \"#utility.yul\":6644:6650   */\n      dup4\n        /* \"#utility.yul\":6641:6655   */\n      gt\n        /* \"#utility.yul\":6669:6670   */\n      0x01\n        /* \"#utility.yul\":6664:7282   */\n      dup2\n      eq\n      tag_140\n      jumpi\n        /* \"#utility.yul\":7326:7327   */\n      0x00\n        /* \"#utility.yul\":7343:7349   */\n      dup5\n        /* \"#utility.yul\":7340:7417   */\n      iszero\n      tag_141\n      jumpi\n        /* \"#utility.yul\":7392:7401   */\n      dup3\n        /* \"#utility.yul\":7387:7390   */\n      dup8\n        /* \"#utility.yul\":7383:7402   */\n      add\n        /* \"#utility.yul\":7377:7403   */\n      mload\n        /* \"#utility.yul\":7368:7403   */\n      swap1\n      pop\n        /* \"#utility.yul\":7340:7417   */\n    tag_141:\n        /* \"#utility.yul\":7443:7510   */\n      tag_142\n        /* \"#utility.yul\":7503:7509   */\n      dup6\n        /* \"#utility.yul\":7496:7501   */\n      dup3\n        /* \"#utility.yul\":7443:7510   */\n      tag_61\n      jump\t// in\n    tag_142:\n        /* \"#utility.yul\":7437:7441   */\n      dup7\n        /* \"#utility.yul\":7430:7511   */\n      sstore\n        /* \"#utility.yul\":7299:7521   */\n      pop\n        /* \"#utility.yul\":6634:7521   */\n      jump(tag_139)\n        /* \"#utility.yul\":6664:7282   */\n    tag_140:\n        /* \"#utility.yul\":6716:6720   */\n      0x1f\n        /* \"#utility.yul\":6712:6721   */\n      not\n        /* \"#utility.yul\":6704:6710   */\n      dup5\n        /* \"#utility.yul\":6700:6722   */\n      and\n        /* \"#utility.yul\":6750:6787   */\n      tag_143\n        /* \"#utility.yul\":6782:6786   */\n      dup7\n        /* \"#utility.yul\":6750:6787   */\n      tag_46\n      jump\t// in\n    tag_143:\n        /* \"#utility.yul\":6809:6810   */\n      0x00\n        /* \"#utility.yul\":6823:7031   */\n    tag_144:\n        /* \"#utility.yul\":6837:6844   */\n      dup3\n        /* \"#utility.yul\":6834:6835   */\n      dup2\n        /* \"#utility.yul\":6831:6845   */\n      lt\n        /* \"#utility.yul\":6823:7031   */\n      iszero\n      tag_146\n      jumpi\n        /* \"#utility.yul\":6916:6925   */\n      dup5\n        /* \"#utility.yul\":6911:6914   */\n      dup10\n        /* \"#utility.yul\":6907:6926   */\n      add\n        /* \"#utility.yul\":6901:6927   */\n      mload\n        /* \"#utility.yul\":6893:6899   */\n      dup3\n        /* \"#utility.yul\":6886:6928   */\n      sstore\n        /* \"#utility.yul\":6967:6968   */\n      0x01\n        /* \"#utility.yul\":6959:6965   */\n      dup3\n        /* \"#utility.yul\":6955:6969   */\n      add\n        /* \"#utility.yul\":6945:6969   */\n      swap2\n      pop\n        /* \"#utility.yul\":7014:7016   */\n      0x20\n        /* \"#utility.yul\":7003:7012   */\n      dup6\n        /* \"#utility.yul\":6999:7017   */\n      add\n        /* \"#utility.yul\":6986:7017   */\n      swap5\n      pop\n        /* \"#utility.yul\":6860:6864   */\n      0x20\n        /* \"#utility.yul\":6857:6858   */\n      dup2\n        /* \"#utility.yul\":6853:6865   */\n      add\n        /* \"#utility.yul\":6848:6865   */\n      swap1\n      pop\n        /* \"#utility.yul\":6823:7031   */\n      jump(tag_144)\n    tag_146:\n        /* \"#utility.yul\":7059:7065   */\n      dup7\n        /* \"#utility.yul\":7050:7057   */\n      dup4\n        /* \"#utility.yul\":7047:7066   */\n      lt\n        /* \"#utility.yul\":7044:7223   */\n      iszero\n      tag_147\n      jumpi\n        /* \"#utility.yul\":7117:7126   */\n      dup5\n        /* \"#utility.yul\":7112:7115   */\n      dup10\n        /* \"#utility.yul\":7108:7127   */\n      add\n        /* \"#utility.yul\":7102:7128   */\n      mload\n        /* \"#utility.yul\":7160:7208   */\n      tag_148\n        /* \"#utility.yul\":7202:7206   */\n      0x1f\n        /* \"#utility.yul\":7194:7200   */\n      dup10\n        /* \"#utility.yul\":7190:7207   */\n      and\n        /* \"#utility.yul\":7179:7188   */\n      dup3\n        /* \"#utility.yul\":7160:7208   */\n      tag_60\n      jump\t// in\n    tag_148:\n        /* \"#utility.yul\":7152:7158   */\n      dup4\n        /* \"#utility.yul\":7145:7209   */\n      sstore\n        /* \"#utility.yul\":7067:7223   */\n      pop\n        /* \"#utility.yul\":7044:7223   */\n    tag_147:\n        /* \"#utility.yul\":7269:7270   */\n      0x01\n        /* \"#utility.yul\":7265:7266   */\n      0x02\n        /* \"#utility.yul\":7257:7263   */\n      dup9\n        /* \"#utility.yul\":7253:7267   */\n      mul\n        /* \"#utility.yul\":7249:7271   */\n      add\n        /* \"#utility.yul\":7243:7247   */\n      dup9\n        /* \"#utility.yul\":7236:7272   */\n      sstore\n        /* \"#utility.yul\":6671:7282   */\n      pop\n      pop\n      pop\n        /* \"#utility.yul\":6634:7521   */\n    tag_139:\n      pop\n        /* \"#utility.yul\":6224:7527   */\n      pop\n      pop\n      pop\n        /* \"#utility.yul\":6132:7527   */\n      pop\n      pop\n      jump\t// out\n\n    auxdata: 0xa2646970667358221220af613ec034a4e7b3c5ac1b3ce0165ebc798f76355ba792e2b876f6ba812700c864736f6c634300081a0033\n}\n",
				"bytecode": {
					"linkReferences": {},
					"object": "6080604052348015600e575f80fd5b506106ce8061001c5f395ff3fe608060405234801561000f575f80fd5b506004361061003f575f3560e01c8063455c928c14610043578063832880e71461004d578063a87430ba1461006b575b5f80fd5b61004b61009b565b005b61005561011c565b60405161006291906102f0565b60405180910390f35b6100856004803603810190610080919061036e565b6101e6565b60405161009291906102f0565b60405180910390f35b6040518060400160405280600a81526020017f6e616e64656573776172000000000000000000000000000000000000000000008152505f803373ffffffffffffffffffffffffffffffffffffffff1673ffffffffffffffffffffffffffffffffffffffff1681526020019081526020015f20908161011991906105c9565b50565b60605f803373ffffffffffffffffffffffffffffffffffffffff1673ffffffffffffffffffffffffffffffffffffffff1681526020019081526020015f208054610165906103f3565b80601f0160208091040260200160405190810160405280929190818152602001828054610191906103f3565b80156101dc5780601f106101b3576101008083540402835291602001916101dc565b820191905f5260205f20905b8154815290600101906020018083116101bf57829003601f168201915b5050505050905090565b5f602052805f5260405f205f915090508054610201906103f3565b80601f016020809104026020016040519081016040528092919081815260200182805461022d906103f3565b80156102785780601f1061024f57610100808354040283529160200191610278565b820191905f5260205f20905b81548152906001019060200180831161025b57829003601f168201915b505050505081565b5f81519050919050565b5f82825260208201905092915050565b8281835e5f83830152505050565b5f601f19601f8301169050919050565b5f6102c282610280565b6102cc818561028a565b93506102dc81856020860161029a565b6102e5816102a8565b840191505092915050565b5f6020820190508181035f83015261030881846102b8565b905092915050565b5f80fd5b5f73ffffffffffffffffffffffffffffffffffffffff82169050919050565b5f61033d82610314565b9050919050565b61034d81610333565b8114610357575f80fd5b50565b5f8135905061036881610344565b92915050565b5f6020828403121561038357610382610310565b5b5f6103908482850161035a565b91505092915050565b7f4e487b71000000000000000000000000000000000000000000000000000000005f52604160045260245ffd5b7f4e487b71000000000000000000000000000000000000000000000000000000005f52602260045260245ffd5b5f600282049050600182168061040a57607f821691505b60208210810361041d5761041c6103c6565b5b50919050565b5f819050815f5260205f209050919050565b5f6020601f8301049050919050565b5f82821b905092915050565b5f6008830261047f7fffffffffffffffffffffffffffffffffffffffffffffffffffffffffffffffff82610444565b6104898683610444565b95508019841693508086168417925050509392505050565b5f819050919050565b5f819050919050565b5f6104cd6104c86104c3846104a1565b6104aa565b6104a1565b9050919050565b5f819050919050565b6104e6836104b3565b6104fa6104f2826104d4565b848454610450565b825550505050565b5f90565b61050e610502565b6105198184846104dd565b505050565b5b8181101561053c576105315f82610506565b60018101905061051f565b5050565b601f8211156105815761055281610423565b61055b84610435565b8101602085101561056a578190505b61057e61057685610435565b83018261051e565b50505b505050565b5f82821c905092915050565b5f6105a15f1984600802610586565b1980831691505092915050565b5f6105b98383610592565b9150826002028217905092915050565b6105d282610280565b67ffffffffffffffff8111156105eb576105ea610399565b5b6105f582546103f3565b610600828285610540565b5f60209050601f831160018114610631575f841561061f578287015190505b61062985826105ae565b865550610690565b601f19841661063f86610423565b5f5b8281101561066657848901518255600182019150602085019450602081019050610641565b86831015610683578489015161067f601f891682610592565b8355505b6001600288020188555050505b50505050505056fea2646970667358221220af613ec034a4e7b3c5ac1b3ce0165ebc798f76355ba792e2b876f6ba812700c864736f6c634300081a0033",
					"opcodes": "PUSH1 0x80 PUSH1 0x40 MSTORE CALLVALUE DUP1 ISZERO PUSH1 0xE JUMPI PUSH0 DUP1 REVERT JUMPDEST POP PUSH2 0x6CE DUP1 PUSH2 0x1C PUSH0 CODECOPY PUSH0 RETURN INVALID PUSH1 0x80 PUSH1 0x40 MSTORE CALLVALUE DUP1 ISZERO PUSH2 0xF JUMPI PUSH0 DUP1 REVERT JUMPDEST POP PUSH1 0x4 CALLDATASIZE LT PUSH2 0x3F JUMPI PUSH0 CALLDATALOAD PUSH1 0xE0 SHR DUP1 PUSH4 0x455C928C EQ PUSH2 0x43 JUMPI DUP1 PUSH4 0x832880E7 EQ PUSH2 0x4D JUMPI DUP1 PUSH4 0xA87430BA EQ PUSH2 0x6B JUMPI JUMPDEST PUSH0 DUP1 REVERT JUMPDEST PUSH2 0x4B PUSH2 0x9B JUMP JUMPDEST STOP JUMPDEST PUSH2 0x55 PUSH2 0x11C JUMP JUMPDEST PUSH1 0x40 MLOAD PUSH2 0x62 SWAP2 SWAP1 PUSH2 0x2F0 JUMP JUMPDEST PUSH1 0x40 MLOAD DUP1 SWAP2 SUB SWAP1 RETURN JUMPDEST PUSH2 0x85 PUSH1 0x4 DUP1 CALLDATASIZE SUB DUP2 ADD SWAP1 PUSH2 0x80 SWAP2 SWAP1 PUSH2 0x36E JUMP JUMPDEST PUSH2 0x1E6 JUMP JUMPDEST PUSH1 0x40 MLOAD PUSH2 0x92 SWAP2 SWAP1 PUSH2 0x2F0 JUMP JUMPDEST PUSH1 0x40 MLOAD DUP1 SWAP2 SUB SWAP1 RETURN JUMPDEST PUSH1 0x40 MLOAD DUP1 PUSH1 0x40 ADD PUSH1 0x40 MSTORE DUP1 PUSH1 0xA DUP2 MSTORE PUSH1 0x20 ADD PUSH32 0x6E616E6465657377617200000000000000000000000000000000000000000000 DUP2 MSTORE POP PUSH0 DUP1 CALLER PUSH20 0xFFFFFFFFFFFFFFFFFFFFFFFFFFFFFFFFFFFFFFFF AND PUSH20 0xFFFFFFFFFFFFFFFFFFFFFFFFFFFFFFFFFFFFFFFF AND DUP2 MSTORE PUSH1 0x20 ADD SWAP1 DUP2 MSTORE PUSH1 0x20 ADD PUSH0 KECCAK256 SWAP1 DUP2 PUSH2 0x119 SWAP2 SWAP1 PUSH2 0x5C9 JUMP JUMPDEST POP JUMP JUMPDEST PUSH1 0x60 PUSH0 DUP1 CALLER PUSH20 0xFFFFFFFFFFFFFFFFFFFFFFFFFFFFFFFFFFFFFFFF AND PUSH20 0xFFFFFFFFFFFFFFFFFFFFFFFFFFFFFFFFFFFFFFFF AND DUP2 MSTORE PUSH1 0x20 ADD SWAP1 DUP2 MSTORE PUSH1 0x20 ADD PUSH0 KECCAK256 DUP1 SLOAD PUSH2 0x165 SWAP1 PUSH2 0x3F3 JUMP JUMPDEST DUP1 PUSH1 0x1F ADD PUSH1 0x20 DUP1 SWAP2 DIV MUL PUSH1 0x20 ADD PUSH1 0x40 MLOAD SWAP1 DUP2 ADD PUSH1 0x40 MSTORE DUP1 SWAP3 SWAP2 SWAP1 DUP2 DUP2 MSTORE PUSH1 0x20 ADD DUP3 DUP1 SLOAD PUSH2 0x191 SWAP1 PUSH2 0x3F3 JUMP JUMPDEST DUP1 ISZERO PUSH2 0x1DC JUMPI DUP1 PUSH1 0x1F LT PUSH2 0x1B3 JUMPI PUSH2 0x100 DUP1 DUP4 SLOAD DIV MUL DUP4 MSTORE SWAP2 PUSH1 0x20 ADD SWAP2 PUSH2 0x1DC JUMP JUMPDEST DUP3 ADD SWAP2 SWAP1 PUSH0 MSTORE PUSH1 0x20 PUSH0 KECCAK256 SWAP1 JUMPDEST DUP2 SLOAD DUP2 MSTORE SWAP1 PUSH1 0x1 ADD SWAP1 PUSH1 0x20 ADD DUP1 DUP4 GT PUSH2 0x1BF JUMPI DUP3 SWAP1 SUB PUSH1 0x1F AND DUP3 ADD SWAP2 JUMPDEST POP POP POP POP POP SWAP1 POP SWAP1 JUMP JUMPDEST PUSH0 PUSH1 0x20 MSTORE DUP1 PUSH0 MSTORE PUSH1 0x40 PUSH0 KECCAK256 PUSH0 SWAP2 POP SWAP1 POP DUP1 SLOAD PUSH2 0x201 SWAP1 PUSH2 0x3F3 JUMP JUMPDEST DUP1 PUSH1 0x1F ADD PUSH1 0x20 DUP1 SWAP2 DIV MUL PUSH1 0x20 ADD PUSH1 0x40 MLOAD SWAP1 DUP2 ADD PUSH1 0x40 MSTORE DUP1 SWAP3 SWAP2 SWAP1 DUP2 DUP2 MSTORE PUSH1 0x20 ADD DUP3 DUP1 SLOAD PUSH2 0x22D SWAP1 PUSH2 0x3F3 JUMP JUMPDEST DUP1 ISZERO PUSH2 0x278 JUMPI DUP1 PUSH1 0x1F LT PUSH2 0x24F JUMPI PUSH2 0x100 DUP1 DUP4 SLOAD DIV MUL DUP4 MSTORE SWAP2 PUSH1 0x20 ADD SWAP2 PUSH2 0x278 JUMP JUMPDEST DUP3 ADD SWAP2 SWAP1 PUSH0 MSTORE PUSH1 0x20 PUSH0 KECCAK256 SWAP1 JUMPDEST DUP2 SLOAD DUP2 MSTORE SWAP1 PUSH1 0x1 ADD SWAP1 PUSH1 0x20 ADD DUP1 DUP4 GT PUSH2 0x25B JUMPI DUP3 SWAP1 SUB PUSH1 0x1F AND DUP3 ADD SWAP2 JUMPDEST POP POP POP POP POP DUP2 JUMP JUMPDEST PUSH0 DUP2 MLOAD SWAP1 POP SWAP2 SWAP1 POP JUMP JUMPDEST PUSH0 DUP3 DUP3 MSTORE PUSH1 0x20 DUP3 ADD SWAP1 POP SWAP3 SWAP2 POP POP JUMP JUMPDEST DUP3 DUP2 DUP4 MCOPY PUSH0 DUP4 DUP4 ADD MSTORE POP POP POP JUMP JUMPDEST PUSH0 PUSH1 0x1F NOT PUSH1 0x1F DUP4 ADD AND SWAP1 POP SWAP2 SWAP1 POP JUMP JUMPDEST PUSH0 PUSH2 0x2C2 DUP3 PUSH2 0x280 JUMP JUMPDEST PUSH2 0x2CC DUP2 DUP6 PUSH2 0x28A JUMP JUMPDEST SWAP4 POP PUSH2 0x2DC DUP2 DUP6 PUSH1 0x20 DUP7 ADD PUSH2 0x29A JUMP JUMPDEST PUSH2 0x2E5 DUP2 PUSH2 0x2A8 JUMP JUMPDEST DUP5 ADD SWAP2 POP POP SWAP3 SWAP2 POP POP JUMP JUMPDEST PUSH0 PUSH1 0x20 DUP3 ADD SWAP1 POP DUP2 DUP2 SUB PUSH0 DUP4 ADD MSTORE PUSH2 0x308 DUP2 DUP5 PUSH2 0x2B8 JUMP JUMPDEST SWAP1 POP SWAP3 SWAP2 POP POP JUMP JUMPDEST PUSH0 DUP1 REVERT JUMPDEST PUSH0 PUSH20 0xFFFFFFFFFFFFFFFFFFFFFFFFFFFFFFFFFFFFFFFF DUP3 AND SWAP1 POP SWAP2 SWAP1 POP JUMP JUMPDEST PUSH0 PUSH2 0x33D DUP3 PUSH2 0x314 JUMP JUMPDEST SWAP1 POP SWAP2 SWAP1 POP JUMP JUMPDEST PUSH2 0x34D DUP2 PUSH2 0x333 JUMP JUMPDEST DUP2 EQ PUSH2 0x357 JUMPI PUSH0 DUP1 REVERT JUMPDEST POP JUMP JUMPDEST PUSH0 DUP2 CALLDATALOAD SWAP1 POP PUSH2 0x368 DUP2 PUSH2 0x344 JUMP JUMPDEST SWAP3 SWAP2 POP POP JUMP JUMPDEST PUSH0 PUSH1 0x20 DUP3 DUP5 SUB SLT ISZERO PUSH2 0x383 JUMPI PUSH2 0x382 PUSH2 0x310 JUMP JUMPDEST JUMPDEST PUSH0 PUSH2 0x390 DUP5 DUP3 DUP6 ADD PUSH2 0x35A JUMP JUMPDEST SWAP2 POP POP SWAP3 SWAP2 POP POP JUMP JUMPDEST PUSH32 0x4E487B7100000000000000000000000000000000000000000000000000000000 PUSH0 MSTORE PUSH1 0x41 PUSH1 0x4 MSTORE PUSH1 0x24 PUSH0 REVERT JUMPDEST PUSH32 0x4E487B7100000000000000000000000000000000000000000000000000000000 PUSH0 MSTORE PUSH1 0x22 PUSH1 0x4 MSTORE PUSH1 0x24 PUSH0 REVERT JUMPDEST PUSH0 PUSH1 0x2 DUP3 DIV SWAP1 POP PUSH1 0x1 DUP3 AND DUP1 PUSH2 0x40A JUMPI PUSH1 0x7F DUP3 AND SWAP2 POP JUMPDEST PUSH1 0x20 DUP3 LT DUP2 SUB PUSH2 0x41D JUMPI PUSH2 0x41C PUSH2 0x3C6 JUMP JUMPDEST JUMPDEST POP SWAP2 SWAP1 POP JUMP JUMPDEST PUSH0 DUP2 SWAP1 POP DUP2 PUSH0 MSTORE PUSH1 0x20 PUSH0 KECCAK256 SWAP1 POP SWAP2 SWAP1 POP JUMP JUMPDEST PUSH0 PUSH1 0x20 PUSH1 0x1F DUP4 ADD DIV SWAP1 POP SWAP2 SWAP1 POP JUMP JUMPDEST PUSH0 DUP3 DUP3 SHL SWAP1 POP SWAP3 SWAP2 POP POP JUMP JUMPDEST PUSH0 PUSH1 0x8 DUP4 MUL PUSH2 0x47F PUSH32 0xFFFFFFFFFFFFFFFFFFFFFFFFFFFFFFFFFFFFFFFFFFFFFFFFFFFFFFFFFFFFFFFF DUP3 PUSH2 0x444 JUMP JUMPDEST PUSH2 0x489 DUP7 DUP4 PUSH2 0x444 JUMP JUMPDEST SWAP6 POP DUP1 NOT DUP5 AND SWAP4 POP DUP1 DUP7 AND DUP5 OR SWAP3 POP POP POP SWAP4 SWAP3 POP POP POP JUMP JUMPDEST PUSH0 DUP2 SWAP1 POP SWAP2 SWAP1 POP JUMP JUMPDEST PUSH0 DUP2 SWAP1 POP SWAP2 SWAP1 POP JUMP JUMPDEST PUSH0 PUSH2 0x4CD PUSH2 0x4C8 PUSH2 0x4C3 DUP5 PUSH2 0x4A1 JUMP JUMPDEST PUSH2 0x4AA JUMP JUMPDEST PUSH2 0x4A1 JUMP JUMPDEST SWAP1 POP SWAP2 SWAP1 POP JUMP JUMPDEST PUSH0 DUP2 SWAP1 POP SWAP2 SWAP1 POP JUMP JUMPDEST PUSH2 0x4E6 DUP4 PUSH2 0x4B3 JUMP JUMPDEST PUSH2 0x4FA PUSH2 0x4F2 DUP3 PUSH2 0x4D4 JUMP JUMPDEST DUP5 DUP5 SLOAD PUSH2 0x450 JUMP JUMPDEST DUP3 SSTORE POP POP POP POP JUMP JUMPDEST PUSH0 SWAP1 JUMP JUMPDEST PUSH2 0x50E PUSH2 0x502 JUMP JUMPDEST PUSH2 0x519 DUP2 DUP5 DUP5 PUSH2 0x4DD JUMP JUMPDEST POP POP POP JUMP JUMPDEST JUMPDEST DUP2 DUP2 LT ISZERO PUSH2 0x53C JUMPI PUSH2 0x531 PUSH0 DUP3 PUSH2 0x506 JUMP JUMPDEST PUSH1 0x1 DUP2 ADD SWAP1 POP PUSH2 0x51F JUMP JUMPDEST POP POP JUMP JUMPDEST PUSH1 0x1F DUP3 GT ISZERO PUSH2 0x581 JUMPI PUSH2 0x552 DUP2 PUSH2 0x423 JUMP JUMPDEST PUSH2 0x55B DUP5 PUSH2 0x435 JUMP JUMPDEST DUP2 ADD PUSH1 0x20 DUP6 LT ISZERO PUSH2 0x56A JUMPI DUP2 SWAP1 POP JUMPDEST PUSH2 0x57E PUSH2 0x576 DUP6 PUSH2 0x435 JUMP JUMPDEST DUP4 ADD DUP3 PUSH2 0x51E JUMP JUMPDEST POP POP JUMPDEST POP POP POP JUMP JUMPDEST PUSH0 DUP3 DUP3 SHR SWAP1 POP SWAP3 SWAP2 POP POP JUMP JUMPDEST PUSH0 PUSH2 0x5A1 PUSH0 NOT DUP5 PUSH1 0x8 MUL PUSH2 0x586 JUMP JUMPDEST NOT DUP1 DUP4 AND SWAP2 POP POP SWAP3 SWAP2 POP POP JUMP JUMPDEST PUSH0 PUSH2 0x5B9 DUP4 DUP4 PUSH2 0x592 JUMP JUMPDEST SWAP2 POP DUP3 PUSH1 0x2 MUL DUP3 OR SWAP1 POP SWAP3 SWAP2 POP POP JUMP JUMPDEST PUSH2 0x5D2 DUP3 PUSH2 0x280 JUMP JUMPDEST PUSH8 0xFFFFFFFFFFFFFFFF DUP2 GT ISZERO PUSH2 0x5EB JUMPI PUSH2 0x5EA PUSH2 0x399 JUMP JUMPDEST JUMPDEST PUSH2 0x5F5 DUP3 SLOAD PUSH2 0x3F3 JUMP JUMPDEST PUSH2 0x600 DUP3 DUP3 DUP6 PUSH2 0x540 JUMP JUMPDEST PUSH0 PUSH1 0x20 SWAP1 POP PUSH1 0x1F DUP4 GT PUSH1 0x1 DUP2 EQ PUSH2 0x631 JUMPI PUSH0 DUP5 ISZERO PUSH2 0x61F JUMPI DUP3 DUP8 ADD MLOAD SWAP1 POP JUMPDEST PUSH2 0x629 DUP6 DUP3 PUSH2 0x5AE JUMP JUMPDEST DUP7 SSTORE POP PUSH2 0x690 JUMP JUMPDEST PUSH1 0x1F NOT DUP5 AND PUSH2 0x63F DUP7 PUSH2 0x423 JUMP JUMPDEST PUSH0 JUMPDEST DUP3 DUP2 LT ISZERO PUSH2 0x666 JUMPI DUP5 DUP10 ADD MLOAD DUP3 SSTORE PUSH1 0x1 DUP3 ADD SWAP2 POP PUSH1 0x20 DUP6 ADD SWAP5 POP PUSH1 0x20 DUP2 ADD SWAP1 POP PUSH2 0x641 JUMP JUMPDEST DUP7 DUP4 LT ISZERO PUSH2 0x683 JUMPI DUP5 DUP10 ADD MLOAD PUSH2 0x67F PUSH1 0x1F DUP10 AND DUP3 PUSH2 0x592 JUMP JUMPDEST DUP4 SSTORE POP JUMPDEST PUSH1 0x1 PUSH1 0x2 DUP9 MUL ADD DUP9 SSTORE POP POP POP JUMPDEST POP POP POP POP POP POP JUMP INVALID LOG2 PUSH5 0x6970667358 0x22 SLT KECCAK256 0xAF PUSH2 0x3EC0 CALLVALUE LOG4 0xE7 0xB3 0xC5 0xAC SHL EXTCODECOPY 0xE0 AND MCOPY 0xBC PUSH26 0x8F76355BA792E2B876F6BA812700C864736F6C634300081A0033 "
				},
				"gasEstimates": {
					"creation": {
						"codeDepositCost": "348400",
						"executionCost": "384",
						"totalCost": "348784"
					},
					"external": {
						"addUser()": "infinite",
						"getUser()": "infinite",
						"users(address)": "infinite"
					}
				},
				"methodIdentifiers": {
					"addUser()": "455c928c",
					"getUser()": "832880e7",
					"users(address)": "a87430ba"
				}
			},
			"storageLayout": {
				"storage": [
					{
						"astId": 5,
						"contract": "contracts/mappings.sol:Mapping",
						"label": "users",
						"offset": 0,
						"slot": "0",
						"type": "t_mapping(t_address,t_string_storage)"
					}
				],
				"types": {
					"t_address": {
						"encoding": "inplace",
						"label": "address",
						"numberOfBytes": "20"
					},
					"t_mapping(t_address,t_string_storage)": {
						"encoding": "mapping",
						"key": "t_address",
						"label": "mapping(address => string)",
						"numberOfBytes": "32",
						"value": "t_string_storage"
					},
					"t_string_storage": {
						"encoding": "bytes",
						"label": "string",
						"numberOfBytes": "32"
					}
				}
			},
			"userdoc": {
				"kind": "user",
				"methods": {},
				"version": 1
			}
		}
	}
}