{
	"contracts/Arithmetic.sol": {
		"Arithmetic": {
			"abi": [
				{
					"inputs": [
						{
							"internalType": "uint8",
							"name": "_num",
							"type": "uint8"
						}
					],
					"stateMutability": "nonpayable",
					"type": "constructor"
				},
				{
					"inputs": [
						{
							"internalType": "uint8",
							"name": "value",
							"type": "uint8"
						}
					],
					"name": "add",
					"outputs": [],
					"stateMutability": "nonpayable",
					"type": "function"
				},
				{
					"inputs": [
						{
							"internalType": "uint8",
							"name": "value",
							"type": "uint8"
						}
					],
					"name": "divide",
					"outputs": [],
					"stateMutability": "nonpayable",
					"type": "function"
				},
				{
					"inputs": [],
					"name": "getNum",
					"outputs": [
						{
							"internalType": "uint8",
							"name": "",
							"type": "uint8"
						}
					],
					"stateMutability": "view",
					"type": "function"
				},
				{
					"inputs": [
						{
							"internalType": "uint8",
							"name": "value",
							"type": "uint8"
						}
					],
					"name": "multiply",
					"outputs": [],
					"stateMutability": "nonpayable",
					"type": "function"
				},
				{
					"inputs": [],
					"name": "num",
					"outputs": [
						{
							"internalType": "uint8",
							"name": "",
							"type": "uint8"
						}
					],
					"stateMutability": "view",
					"type": "function"
				},
				{
					"inputs": [
						{
							"internalType": "uint8",
							"name": "value",
							"type": "uint8"
						}
					],
					"name": "subtract",
					"outputs": [],
					"stateMutability": "nonpayable",
					"type": "function"
				}
			],
			"devdoc": {
				"kind": "dev",
				"methods": {},
				"version": 1
			},
			"evm": {
				"assembly": "    /* \"contracts/Arithmetic.sol\":25:545  contract Arithmetic {... */\n  mstore(0x40, 0x80)\n    /* \"contracts/Arithmetic.sol\":75:126  constructor(uint8 _num) {... */\n  callvalue\n  dup1\n  iszero\n  tag_1\n  jumpi\n  0x00\n  dup1\n  revert\ntag_1:\n  pop\n  mload(0x40)\n  sub(codesize, bytecodeSize)\n  dup1\n  bytecodeSize\n  dup4\n  codecopy\n  dup2\n  dup2\n  add\n  0x40\n  mstore\n  dup2\n  add\n  swap1\n  tag_2\n  swap2\n  swap1\n  tag_3\n  jump\t// in\ntag_2:\n    /* \"contracts/Arithmetic.sol\":115:119  _num */\n  dup1\n    /* \"contracts/Arithmetic.sol\":109:112  num */\n  0x00\n  dup1\n    /* \"contracts/Arithmetic.sol\":109:119  num = _num */\n  0x0100\n  exp\n  dup2\n  sload\n  dup2\n  0xff\n  mul\n  not\n  and\n  swap1\n  dup4\n  0xff\n  and\n  mul\n  or\n  swap1\n  sstore\n  pop\n    /* \"contracts/Arithmetic.sol\":75:126  constructor(uint8 _num) {... */\n  pop\n    /* \"contracts/Arithmetic.sol\":25:545  contract Arithmetic {... */\n  jump(tag_6)\n    /* \"#utility.yul\":88:205   */\ntag_8:\n    /* \"#utility.yul\":197:198   */\n  0x00\n    /* \"#utility.yul\":194:195   */\n  dup1\n    /* \"#utility.yul\":187:199   */\n  revert\n    /* \"#utility.yul\":334:420   */\ntag_10:\n    /* \"#utility.yul\":369:376   */\n  0x00\n    /* \"#utility.yul\":409:413   */\n  0xff\n    /* \"#utility.yul\":402:407   */\n  dup3\n    /* \"#utility.yul\":398:414   */\n  and\n    /* \"#utility.yul\":387:414   */\n  swap1\n  pop\n    /* \"#utility.yul\":334:420   */\n  swap2\n  swap1\n  pop\n  jump\t// out\n    /* \"#utility.yul\":426:544   */\ntag_11:\n    /* \"#utility.yul\":497:519   */\n  tag_19\n    /* \"#utility.yul\":513:518   */\n  dup2\n    /* \"#utility.yul\":497:519   */\n  tag_10\n  jump\t// in\ntag_19:\n    /* \"#utility.yul\":490:495   */\n  dup2\n    /* \"#utility.yul\":487:520   */\n  eq\n    /* \"#utility.yul\":477:538   */\n  tag_20\n  jumpi\n    /* \"#utility.yul\":534:535   */\n  0x00\n    /* \"#utility.yul\":531:532   */\n  dup1\n    /* \"#utility.yul\":524:536   */\n  revert\n    /* \"#utility.yul\":477:538   */\ntag_20:\n    /* \"#utility.yul\":426:544   */\n  pop\n  jump\t// out\n    /* \"#utility.yul\":550:689   */\ntag_12:\n    /* \"#utility.yul\":605:610   */\n  0x00\n    /* \"#utility.yul\":636:642   */\n  dup2\n    /* \"#utility.yul\":630:643   */\n  mload\n    /* \"#utility.yul\":621:643   */\n  swap1\n  pop\n    /* \"#utility.yul\":652:683   */\n  tag_22\n    /* \"#utility.yul\":677:682   */\n  dup2\n    /* \"#utility.yul\":652:683   */\n  tag_11\n  jump\t// in\ntag_22:\n    /* \"#utility.yul\":550:689   */\n  swap3\n  swap2\n  pop\n  pop\n  jump\t// out\n    /* \"#utility.yul\":695:1042   */\ntag_3:\n    /* \"#utility.yul\":763:769   */\n  0x00\n    /* \"#utility.yul\":812:814   */\n  0x20\n    /* \"#utility.yul\":800:809   */\n  dup3\n    /* \"#utility.yul\":791:798   */\n  dup5\n    /* \"#utility.yul\":787:810   */\n  sub\n    /* \"#utility.yul\":783:815   */\n  slt\n    /* \"#utility.yul\":780:899   */\n  iszero\n  tag_24\n  jumpi\n    /* \"#utility.yul\":818:897   */\n  tag_25\n  tag_8\n  jump\t// in\ntag_25:\n    /* \"#utility.yul\":780:899   */\ntag_24:\n    /* \"#utility.yul\":938:939   */\n  0x00\n    /* \"#utility.yul\":963:1025   */\n  tag_26\n    /* \"#utility.yul\":1017:1024   */\n  dup5\n    /* \"#utility.yul\":1008:1014   */\n  dup3\n    /* \"#utility.yul\":997:1006   */\n  dup6\n    /* \"#utility.yul\":993:1015   */\n  add\n    /* \"#utility.yul\":963:1025   */\n  tag_12\n  jump\t// in\ntag_26:\n    /* \"#utility.yul\":953:1025   */\n  swap2\n  pop\n    /* \"#utility.yul\":909:1035   */\n  pop\n    /* \"#utility.yul\":695:1042   */\n  swap3\n  swap2\n  pop\n  pop\n  jump\t// out\n    /* \"contracts/Arithmetic.sol\":25:545  contract Arithmetic {... */\ntag_6:\n  dataSize(sub_0)\n  dup1\n  dataOffset(sub_0)\n  0x00\n  codecopy\n  0x00\n  return\nstop\n\nsub_0: assembly {\n        /* \"contracts/Arithmetic.sol\":25:545  contract Arithmetic {... */\n      mstore(0x40, 0x80)\n      callvalue\n      dup1\n      iszero\n      tag_1\n      jumpi\n      0x00\n      dup1\n      revert\n    tag_1:\n      pop\n      jumpi(tag_2, lt(calldatasize, 0x04))\n      shr(0xe0, calldataload(0x00))\n      dup1\n      0x02067e6a\n      eq\n      tag_3\n      jumpi\n      dup1\n      0x07624b86\n      eq\n      tag_4\n      jumpi\n      dup1\n      0x0eca58c3\n      eq\n      tag_5\n      jumpi\n      dup1\n      0x4e70b1dc\n      eq\n      tag_6\n      jumpi\n      dup1\n      0x67e0badb\n      eq\n      tag_7\n      jumpi\n      dup1\n      0x8a7be533\n      eq\n      tag_8\n      jumpi\n    tag_2:\n      0x00\n      dup1\n      revert\n        /* \"contracts/Arithmetic.sol\":132:194  function add(uint8 value) public {... */\n    tag_3:\n      tag_9\n      0x04\n      dup1\n      calldatasize\n      sub\n      dup2\n      add\n      swap1\n      tag_10\n      swap2\n      swap1\n      tag_11\n      jump\t// in\n    tag_10:\n      tag_12\n      jump\t// in\n    tag_9:\n      stop\n        /* \"contracts/Arithmetic.sol\":200:267  function subtract(uint8 value) public {... */\n    tag_4:\n      tag_13\n      0x04\n      dup1\n      calldatasize\n      sub\n      dup2\n      add\n      swap1\n      tag_14\n      swap2\n      swap1\n      tag_11\n      jump\t// in\n    tag_14:\n      tag_15\n      jump\t// in\n    tag_13:\n      stop\n        /* \"contracts/Arithmetic.sol\":346:464  function divide(uint8 value) public {... */\n    tag_5:\n      tag_16\n      0x04\n      dup1\n      calldatasize\n      sub\n      dup2\n      add\n      swap1\n      tag_17\n      swap2\n      swap1\n      tag_11\n      jump\t// in\n    tag_17:\n      tag_18\n      jump\t// in\n    tag_16:\n      stop\n        /* \"contracts/Arithmetic.sol\":52:68  uint8 public num */\n    tag_6:\n      tag_19\n      tag_20\n      jump\t// in\n    tag_19:\n      mload(0x40)\n      tag_21\n      swap2\n      swap1\n      tag_22\n      jump\t// in\n    tag_21:\n      mload(0x40)\n      dup1\n      swap2\n      sub\n      swap1\n      return\n        /* \"contracts/Arithmetic.sol\":470:541  function getNum() public view returns(uint8){... */\n    tag_7:\n      tag_23\n      tag_24\n      jump\t// in\n    tag_23:\n      mload(0x40)\n      tag_25\n      swap2\n      swap1\n      tag_22\n      jump\t// in\n    tag_25:\n      mload(0x40)\n      dup1\n      swap2\n      sub\n      swap1\n      return\n        /* \"contracts/Arithmetic.sol\":273:340  function multiply(uint8 value) public {... */\n    tag_8:\n      tag_26\n      0x04\n      dup1\n      calldatasize\n      sub\n      dup2\n      add\n      swap1\n      tag_27\n      swap2\n      swap1\n      tag_11\n      jump\t// in\n    tag_27:\n      tag_28\n      jump\t// in\n    tag_26:\n      stop\n        /* \"contracts/Arithmetic.sol\":132:194  function add(uint8 value) public {... */\n    tag_12:\n        /* \"contracts/Arithmetic.sol\":182:187  value */\n      dup1\n        /* \"contracts/Arithmetic.sol\":175:178  num */\n      0x00\n      dup1\n        /* \"contracts/Arithmetic.sol\":175:187  num += value */\n      dup3\n      dup3\n      dup3\n      swap1\n      sload\n      swap1\n      0x0100\n      exp\n      swap1\n      div\n      0xff\n      and\n      tag_30\n      swap2\n      swap1\n      tag_31\n      jump\t// in\n    tag_30:\n      swap3\n      pop\n      0x0100\n      exp\n      dup2\n      sload\n      dup2\n      0xff\n      mul\n      not\n      and\n      swap1\n      dup4\n      0xff\n      and\n      mul\n      or\n      swap1\n      sstore\n      pop\n        /* \"contracts/Arithmetic.sol\":132:194  function add(uint8 value) public {... */\n      pop\n      jump\t// out\n        /* \"contracts/Arithmetic.sol\":200:267  function subtract(uint8 value) public {... */\n    tag_15:\n        /* \"contracts/Arithmetic.sol\":255:260  value */\n      dup1\n        /* \"contracts/Arithmetic.sol\":248:251  num */\n      0x00\n      dup1\n        /* \"contracts/Arithmetic.sol\":248:260  num -= value */\n      dup3\n      dup3\n      dup3\n      swap1\n      sload\n      swap1\n      0x0100\n      exp\n      swap1\n      div\n      0xff\n      and\n      tag_33\n      swap2\n      swap1\n      tag_34\n      jump\t// in\n    tag_33:\n      swap3\n      pop\n      0x0100\n      exp\n      dup2\n      sload\n      dup2\n      0xff\n      mul\n      not\n      and\n      swap1\n      dup4\n      0xff\n      and\n      mul\n      or\n      swap1\n      sstore\n      pop\n        /* \"contracts/Arithmetic.sol\":200:267  function subtract(uint8 value) public {... */\n      pop\n      jump\t// out\n        /* \"contracts/Arithmetic.sol\":346:464  function divide(uint8 value) public {... */\n    tag_18:\n        /* \"contracts/Arithmetic.sol\":409:410  0 */\n      0x00\n        /* \"contracts/Arithmetic.sol\":400:405  value */\n      dup2\n        /* \"contracts/Arithmetic.sol\":400:410  value != 0 */\n      0xff\n      and\n      sub\n        /* \"contracts/Arithmetic.sol\":392:435  require(value != 0, \"Can't divide by zero\") */\n      tag_36\n      jumpi\n      mload(0x40)\n      0x08c379a000000000000000000000000000000000000000000000000000000000\n      dup2\n      mstore\n      0x04\n      add\n      tag_37\n      swap1\n      tag_38\n      jump\t// in\n    tag_37:\n      mload(0x40)\n      dup1\n      swap2\n      sub\n      swap1\n      revert\n    tag_36:\n        /* \"contracts/Arithmetic.sol\":452:457  value */\n      dup1\n        /* \"contracts/Arithmetic.sol\":445:448  num */\n      0x00\n      dup1\n        /* \"contracts/Arithmetic.sol\":445:457  num /= value */\n      dup3\n      dup3\n      dup3\n      swap1\n      sload\n      swap1\n      0x0100\n      exp\n      swap1\n      div\n      0xff\n      and\n      tag_39\n      swap2\n      swap1\n      tag_40\n      jump\t// in\n    tag_39:\n      swap3\n      pop\n      0x0100\n      exp\n      dup2\n      sload\n      dup2\n      0xff\n      mul\n      not\n      and\n      swap1\n      dup4\n      0xff\n      and\n      mul\n      or\n      swap1\n      sstore\n      pop\n        /* \"contracts/Arithmetic.sol\":346:464  function divide(uint8 value) public {... */\n      pop\n      jump\t// out\n        /* \"contracts/Arithmetic.sol\":52:68  uint8 public num */\n    tag_20:\n      0x00\n      dup1\n      sload\n      swap1\n      0x0100\n      exp\n      swap1\n      div\n      0xff\n      and\n      dup2\n      jump\t// out\n        /* \"contracts/Arithmetic.sol\":470:541  function getNum() public view returns(uint8){... */\n    tag_24:\n        /* \"contracts/Arithmetic.sol\":508:513  uint8 */\n      0x00\n        /* \"contracts/Arithmetic.sol\":531:534  num */\n      dup1\n      0x00\n      swap1\n      sload\n      swap1\n      0x0100\n      exp\n      swap1\n      div\n      0xff\n      and\n        /* \"contracts/Arithmetic.sol\":524:534  return num */\n      swap1\n      pop\n        /* \"contracts/Arithmetic.sol\":470:541  function getNum() public view returns(uint8){... */\n      swap1\n      jump\t// out\n        /* \"contracts/Arithmetic.sol\":273:340  function multiply(uint8 value) public {... */\n    tag_28:\n        /* \"contracts/Arithmetic.sol\":328:333  value */\n      dup1\n        /* \"contracts/Arithmetic.sol\":321:324  num */\n      0x00\n      dup1\n        /* \"contracts/Arithmetic.sol\":321:333  num *= value */\n      dup3\n      dup3\n      dup3\n      swap1\n      sload\n      swap1\n      0x0100\n      exp\n      swap1\n      div\n      0xff\n      and\n      tag_43\n      swap2\n      swap1\n      tag_44\n      jump\t// in\n    tag_43:\n      swap3\n      pop\n      0x0100\n      exp\n      dup2\n      sload\n      dup2\n      0xff\n      mul\n      not\n      and\n      swap1\n      dup4\n      0xff\n      and\n      mul\n      or\n      swap1\n      sstore\n      pop\n        /* \"contracts/Arithmetic.sol\":273:340  function multiply(uint8 value) public {... */\n      pop\n      jump\t// out\n        /* \"#utility.yul\":88:205   */\n    tag_46:\n        /* \"#utility.yul\":197:198   */\n      0x00\n        /* \"#utility.yul\":194:195   */\n      dup1\n        /* \"#utility.yul\":187:199   */\n      revert\n        /* \"#utility.yul\":334:420   */\n    tag_48:\n        /* \"#utility.yul\":369:376   */\n      0x00\n        /* \"#utility.yul\":409:413   */\n      0xff\n        /* \"#utility.yul\":402:407   */\n      dup3\n        /* \"#utility.yul\":398:414   */\n      and\n        /* \"#utility.yul\":387:414   */\n      swap1\n      pop\n        /* \"#utility.yul\":334:420   */\n      swap2\n      swap1\n      pop\n      jump\t// out\n        /* \"#utility.yul\":426:544   */\n    tag_49:\n        /* \"#utility.yul\":497:519   */\n      tag_63\n        /* \"#utility.yul\":513:518   */\n      dup2\n        /* \"#utility.yul\":497:519   */\n      tag_48\n      jump\t// in\n    tag_63:\n        /* \"#utility.yul\":490:495   */\n      dup2\n        /* \"#utility.yul\":487:520   */\n      eq\n        /* \"#utility.yul\":477:538   */\n      tag_64\n      jumpi\n        /* \"#utility.yul\":534:535   */\n      0x00\n        /* \"#utility.yul\":531:532   */\n      dup1\n        /* \"#utility.yul\":524:536   */\n      revert\n        /* \"#utility.yul\":477:538   */\n    tag_64:\n        /* \"#utility.yul\":426:544   */\n      pop\n      jump\t// out\n        /* \"#utility.yul\":550:685   */\n    tag_50:\n        /* \"#utility.yul\":594:599   */\n      0x00\n        /* \"#utility.yul\":632:638   */\n      dup2\n        /* \"#utility.yul\":619:639   */\n      calldataload\n        /* \"#utility.yul\":610:639   */\n      swap1\n      pop\n        /* \"#utility.yul\":648:679   */\n      tag_66\n        /* \"#utility.yul\":673:678   */\n      dup2\n        /* \"#utility.yul\":648:679   */\n      tag_49\n      jump\t// in\n    tag_66:\n        /* \"#utility.yul\":550:685   */\n      swap3\n      swap2\n      pop\n      pop\n      jump\t// out\n        /* \"#utility.yul\":691:1016   */\n    tag_11:\n        /* \"#utility.yul\":748:754   */\n      0x00\n        /* \"#utility.yul\":797:799   */\n      0x20\n        /* \"#utility.yul\":785:794   */\n      dup3\n        /* \"#utility.yul\":776:783   */\n      dup5\n        /* \"#utility.yul\":772:795   */\n      sub\n        /* \"#utility.yul\":768:800   */\n      slt\n        /* \"#utility.yul\":765:884   */\n      iszero\n      tag_68\n      jumpi\n        /* \"#utility.yul\":803:882   */\n      tag_69\n      tag_46\n      jump\t// in\n    tag_69:\n        /* \"#utility.yul\":765:884   */\n    tag_68:\n        /* \"#utility.yul\":923:924   */\n      0x00\n        /* \"#utility.yul\":948:999   */\n      tag_70\n        /* \"#utility.yul\":991:998   */\n      dup5\n        /* \"#utility.yul\":982:988   */\n      dup3\n        /* \"#utility.yul\":971:980   */\n      dup6\n        /* \"#utility.yul\":967:989   */\n      add\n        /* \"#utility.yul\":948:999   */\n      tag_50\n      jump\t// in\n    tag_70:\n        /* \"#utility.yul\":938:999   */\n      swap2\n      pop\n        /* \"#utility.yul\":894:1009   */\n      pop\n        /* \"#utility.yul\":691:1016   */\n      swap3\n      swap2\n      pop\n      pop\n      jump\t// out\n        /* \"#utility.yul\":1022:1134   */\n    tag_51:\n        /* \"#utility.yul\":1105:1127   */\n      tag_72\n        /* \"#utility.yul\":1121:1126   */\n      dup2\n        /* \"#utility.yul\":1105:1127   */\n      tag_48\n      jump\t// in\n    tag_72:\n        /* \"#utility.yul\":1100:1103   */\n      dup3\n        /* \"#utility.yul\":1093:1128   */\n      mstore\n        /* \"#utility.yul\":1022:1134   */\n      pop\n      pop\n      jump\t// out\n        /* \"#utility.yul\":1140:1354   */\n    tag_22:\n        /* \"#utility.yul\":1229:1233   */\n      0x00\n        /* \"#utility.yul\":1267:1269   */\n      0x20\n        /* \"#utility.yul\":1256:1265   */\n      dup3\n        /* \"#utility.yul\":1252:1270   */\n      add\n        /* \"#utility.yul\":1244:1270   */\n      swap1\n      pop\n        /* \"#utility.yul\":1280:1347   */\n      tag_74\n        /* \"#utility.yul\":1344:1345   */\n      0x00\n        /* \"#utility.yul\":1333:1342   */\n      dup4\n        /* \"#utility.yul\":1329:1346   */\n      add\n        /* \"#utility.yul\":1320:1326   */\n      dup5\n        /* \"#utility.yul\":1280:1347   */\n      tag_51\n      jump\t// in\n    tag_74:\n        /* \"#utility.yul\":1140:1354   */\n      swap3\n      swap2\n      pop\n      pop\n      jump\t// out\n        /* \"#utility.yul\":1360:1540   */\n    tag_52:\n        /* \"#utility.yul\":1408:1485   */\n      0x4e487b7100000000000000000000000000000000000000000000000000000000\n        /* \"#utility.yul\":1405:1406   */\n      0x00\n        /* \"#utility.yul\":1398:1486   */\n      mstore\n        /* \"#utility.yul\":1505:1509   */\n      0x11\n        /* \"#utility.yul\":1502:1503   */\n      0x04\n        /* \"#utility.yul\":1495:1510   */\n      mstore\n        /* \"#utility.yul\":1529:1533   */\n      0x24\n        /* \"#utility.yul\":1526:1527   */\n      0x00\n        /* \"#utility.yul\":1519:1534   */\n      revert\n        /* \"#utility.yul\":1546:1734   */\n    tag_31:\n        /* \"#utility.yul\":1584:1587   */\n      0x00\n        /* \"#utility.yul\":1603:1621   */\n      tag_77\n        /* \"#utility.yul\":1619:1620   */\n      dup3\n        /* \"#utility.yul\":1603:1621   */\n      tag_48\n      jump\t// in\n    tag_77:\n        /* \"#utility.yul\":1598:1621   */\n      swap2\n      pop\n        /* \"#utility.yul\":1635:1653   */\n      tag_78\n        /* \"#utility.yul\":1651:1652   */\n      dup4\n        /* \"#utility.yul\":1635:1653   */\n      tag_48\n      jump\t// in\n    tag_78:\n        /* \"#utility.yul\":1630:1653   */\n      swap3\n      pop\n        /* \"#utility.yul\":1676:1677   */\n      dup3\n        /* \"#utility.yul\":1673:1674   */\n      dup3\n        /* \"#utility.yul\":1669:1678   */\n      add\n        /* \"#utility.yul\":1662:1678   */\n      swap1\n      pop\n        /* \"#utility.yul\":1699:1703   */\n      0xff\n        /* \"#utility.yul\":1694:1697   */\n      dup2\n        /* \"#utility.yul\":1691:1704   */\n      gt\n        /* \"#utility.yul\":1688:1727   */\n      iszero\n      tag_79\n      jumpi\n        /* \"#utility.yul\":1707:1725   */\n      tag_80\n      tag_52\n      jump\t// in\n    tag_80:\n        /* \"#utility.yul\":1688:1727   */\n    tag_79:\n        /* \"#utility.yul\":1546:1734   */\n      swap3\n      swap2\n      pop\n      pop\n      jump\t// out\n        /* \"#utility.yul\":1740:1931   */\n    tag_34:\n        /* \"#utility.yul\":1778:1782   */\n      0x00\n        /* \"#utility.yul\":1798:1816   */\n      tag_82\n        /* \"#utility.yul\":1814:1815   */\n      dup3\n        /* \"#utility.yul\":1798:1816   */\n      tag_48\n      jump\t// in\n    tag_82:\n        /* \"#utility.yul\":1793:1816   */\n      swap2\n      pop\n        /* \"#utility.yul\":1830:1848   */\n      tag_83\n        /* \"#utility.yul\":1846:1847   */\n      dup4\n        /* \"#utility.yul\":1830:1848   */\n      tag_48\n      jump\t// in\n    tag_83:\n        /* \"#utility.yul\":1825:1848   */\n      swap3\n      pop\n        /* \"#utility.yul\":1872:1873   */\n      dup3\n        /* \"#utility.yul\":1869:1870   */\n      dup3\n        /* \"#utility.yul\":1865:1874   */\n      sub\n        /* \"#utility.yul\":1857:1874   */\n      swap1\n      pop\n        /* \"#utility.yul\":1896:1900   */\n      0xff\n        /* \"#utility.yul\":1890:1894   */\n      dup2\n        /* \"#utility.yul\":1887:1901   */\n      gt\n        /* \"#utility.yul\":1884:1924   */\n      iszero\n      tag_84\n      jumpi\n        /* \"#utility.yul\":1904:1922   */\n      tag_85\n      tag_52\n      jump\t// in\n    tag_85:\n        /* \"#utility.yul\":1884:1924   */\n    tag_84:\n        /* \"#utility.yul\":1740:1931   */\n      swap3\n      swap2\n      pop\n      pop\n      jump\t// out\n        /* \"#utility.yul\":1937:2106   */\n    tag_53:\n        /* \"#utility.yul\":2021:2032   */\n      0x00\n        /* \"#utility.yul\":2055:2061   */\n      dup3\n        /* \"#utility.yul\":2050:2053   */\n      dup3\n        /* \"#utility.yul\":2043:2062   */\n      mstore\n        /* \"#utility.yul\":2095:2099   */\n      0x20\n        /* \"#utility.yul\":2090:2093   */\n      dup3\n        /* \"#utility.yul\":2086:2100   */\n      add\n        /* \"#utility.yul\":2071:2100   */\n      swap1\n      pop\n        /* \"#utility.yul\":1937:2106   */\n      swap3\n      swap2\n      pop\n      pop\n      jump\t// out\n        /* \"#utility.yul\":2112:2282   */\n    tag_54:\n        /* \"#utility.yul\":2252:2274   */\n      0x43616e277420646976696465206279207a65726f000000000000000000000000\n        /* \"#utility.yul\":2248:2249   */\n      0x00\n        /* \"#utility.yul\":2240:2246   */\n      dup3\n        /* \"#utility.yul\":2236:2250   */\n      add\n        /* \"#utility.yul\":2229:2275   */\n      mstore\n        /* \"#utility.yul\":2112:2282   */\n      pop\n      jump\t// out\n        /* \"#utility.yul\":2288:2654   */\n    tag_55:\n        /* \"#utility.yul\":2430:2433   */\n      0x00\n        /* \"#utility.yul\":2451:2518   */\n      tag_89\n        /* \"#utility.yul\":2515:2517   */\n      0x14\n        /* \"#utility.yul\":2510:2513   */\n      dup4\n        /* \"#utility.yul\":2451:2518   */\n      tag_53\n      jump\t// in\n    tag_89:\n        /* \"#utility.yul\":2444:2518   */\n      swap2\n      pop\n        /* \"#utility.yul\":2527:2620   */\n      tag_90\n        /* \"#utility.yul\":2616:2619   */\n      dup3\n        /* \"#utility.yul\":2527:2620   */\n      tag_54\n      jump\t// in\n    tag_90:\n        /* \"#utility.yul\":2645:2647   */\n      0x20\n        /* \"#utility.yul\":2640:2643   */\n      dup3\n        /* \"#utility.yul\":2636:2648   */\n      add\n        /* \"#utility.yul\":2629:2648   */\n      swap1\n      pop\n        /* \"#utility.yul\":2288:2654   */\n      swap2\n      swap1\n      pop\n      jump\t// out\n        /* \"#utility.yul\":2660:3079   */\n    tag_38:\n        /* \"#utility.yul\":2826:2830   */\n      0x00\n        /* \"#utility.yul\":2864:2866   */\n      0x20\n        /* \"#utility.yul\":2853:2862   */\n      dup3\n        /* \"#utility.yul\":2849:2867   */\n      add\n        /* \"#utility.yul\":2841:2867   */\n      swap1\n      pop\n        /* \"#utility.yul\":2913:2922   */\n      dup2\n        /* \"#utility.yul\":2907:2911   */\n      dup2\n        /* \"#utility.yul\":2903:2923   */\n      sub\n        /* \"#utility.yul\":2899:2900   */\n      0x00\n        /* \"#utility.yul\":2888:2897   */\n      dup4\n        /* \"#utility.yul\":2884:2901   */\n      add\n        /* \"#utility.yul\":2877:2924   */\n      mstore\n        /* \"#utility.yul\":2941:3072   */\n      tag_92\n        /* \"#utility.yul\":3067:3071   */\n      dup2\n        /* \"#utility.yul\":2941:3072   */\n      tag_55\n      jump\t// in\n    tag_92:\n        /* \"#utility.yul\":2933:3072   */\n      swap1\n      pop\n        /* \"#utility.yul\":2660:3079   */\n      swap2\n      swap1\n      pop\n      jump\t// out\n        /* \"#utility.yul\":3085:3265   */\n    tag_56:\n        /* \"#utility.yul\":3133:3210   */\n      0x4e487b7100000000000000000000000000000000000000000000000000000000\n        /* \"#utility.yul\":3130:3131   */\n      0x00\n        /* \"#utility.yul\":3123:3211   */\n      mstore\n        /* \"#utility.yul\":3230:3234   */\n      0x12\n        /* \"#utility.yul\":3227:3228   */\n      0x04\n        /* \"#utility.yul\":3220:3235   */\n      mstore\n        /* \"#utility.yul\":3254:3258   */\n      0x24\n        /* \"#utility.yul\":3251:3252   */\n      0x00\n        /* \"#utility.yul\":3244:3259   */\n      revert\n        /* \"#utility.yul\":3271:3450   */\n    tag_40:\n        /* \"#utility.yul\":3309:3310   */\n      0x00\n        /* \"#utility.yul\":3326:3344   */\n      tag_95\n        /* \"#utility.yul\":3342:3343   */\n      dup3\n        /* \"#utility.yul\":3326:3344   */\n      tag_48\n      jump\t// in\n    tag_95:\n        /* \"#utility.yul\":3321:3344   */\n      swap2\n      pop\n        /* \"#utility.yul\":3358:3376   */\n      tag_96\n        /* \"#utility.yul\":3374:3375   */\n      dup4\n        /* \"#utility.yul\":3358:3376   */\n      tag_48\n      jump\t// in\n    tag_96:\n        /* \"#utility.yul\":3353:3376   */\n      swap3\n      pop\n        /* \"#utility.yul\":3395:3396   */\n      dup3\n        /* \"#utility.yul\":3385:3420   */\n      tag_97\n      jumpi\n        /* \"#utility.yul\":3400:3418   */\n      tag_98\n      tag_56\n      jump\t// in\n    tag_98:\n        /* \"#utility.yul\":3385:3420   */\n    tag_97:\n        /* \"#utility.yul\":3442:3443   */\n      dup3\n        /* \"#utility.yul\":3439:3440   */\n      dup3\n        /* \"#utility.yul\":3435:3444   */\n      div\n        /* \"#utility.yul\":3430:3444   */\n      swap1\n      pop\n        /* \"#utility.yul\":3271:3450   */\n      swap3\n      swap2\n      pop\n      pop\n      jump\t// out\n        /* \"#utility.yul\":3456:3727   */\n    tag_44:\n        /* \"#utility.yul\":3494:3501   */\n      0x00\n        /* \"#utility.yul\":3517:3535   */\n      tag_100\n        /* \"#utility.yul\":3533:3534   */\n      dup3\n        /* \"#utility.yul\":3517:3535   */\n      tag_48\n      jump\t// in\n    tag_100:\n        /* \"#utility.yul\":3512:3535   */\n      swap2\n      pop\n        /* \"#utility.yul\":3549:3567   */\n      tag_101\n        /* \"#utility.yul\":3565:3566   */\n      dup4\n        /* \"#utility.yul\":3549:3567   */\n      tag_48\n      jump\t// in\n    tag_101:\n        /* \"#utility.yul\":3544:3567   */\n      swap3\n      pop\n        /* \"#utility.yul\":3602:3603   */\n      dup3\n        /* \"#utility.yul\":3599:3600   */\n      dup3\n        /* \"#utility.yul\":3595:3604   */\n      mul\n        /* \"#utility.yul\":3624:3652   */\n      tag_102\n        /* \"#utility.yul\":3640:3651   */\n      dup2\n        /* \"#utility.yul\":3624:3652   */\n      tag_48\n      jump\t// in\n    tag_102:\n        /* \"#utility.yul\":3613:3652   */\n      swap2\n      pop\n        /* \"#utility.yul\":3684:3695   */\n      dup1\n        /* \"#utility.yul\":3675:3682   */\n      dup3\n        /* \"#utility.yul\":3672:3696   */\n      eq\n        /* \"#utility.yul\":3662:3720   */\n      tag_103\n      jumpi\n        /* \"#utility.yul\":3700:3718   */\n      tag_104\n      tag_52\n      jump\t// in\n    tag_104:\n        /* \"#utility.yul\":3662:3720   */\n    tag_103:\n        /* \"#utility.yul\":3502:3727   */\n      pop\n        /* \"#utility.yul\":3456:3727   */\n      swap3\n      swap2\n      pop\n      pop\n      jump\t// out\n\n    auxdata: 0xa26469706673582212202e3ab26b16e88005dc4f529c12e1c1512fc5587d10a043b8448b04900f84a0ad64736f6c634300081a0033\n}\n",
				"bytecode": {
					"linkReferences": {},
					"object": "6080604052348015600e575f80fd5b506040516105723803806105728339818101604052810190602e91906081565b805f806101000a81548160ff021916908360ff1602179055505060a7565b5f80fd5b5f60ff82169050919050565b6063816050565b8114606c575f80fd5b50565b5f81519050607b81605c565b92915050565b5f602082840312156093576092604c565b5b5f609e84828501606f565b91505092915050565b6104be806100b45f395ff3fe608060405234801561000f575f80fd5b5060043610610060575f3560e01c806302067e6a1461006457806307624b86146100805780630eca58c31461009c5780634e70b1dc146100b857806367e0badb146100d65780638a7be533146100f4575b5f80fd5b61007e6004803603810190610079919061028f565b610110565b005b61009a6004803603810190610095919061028f565b610147565b005b6100b660048036038101906100b1919061028f565b61017e565b005b6100c06101fa565b6040516100cd91906102c9565b60405180910390f35b6100de61020a565b6040516100eb91906102c9565b60405180910390f35b61010e6004803603810190610109919061028f565b61021e565b005b805f808282829054906101000a900460ff1661012c919061030f565b92506101000a81548160ff021916908360ff16021790555050565b805f808282829054906101000a900460ff166101639190610343565b92506101000a81548160ff021916908360ff16021790555050565b5f8160ff16036101c3576040517f08c379a00000000000000000000000000000000000000000000000000000000081526004016101ba906103d1565b60405180910390fd5b805f808282829054906101000a900460ff166101df919061041c565b92506101000a81548160ff021916908360ff16021790555050565b5f8054906101000a900460ff1681565b5f805f9054906101000a900460ff16905090565b805f808282829054906101000a900460ff1661023a919061044c565b92506101000a81548160ff021916908360ff16021790555050565b5f80fd5b5f60ff82169050919050565b61026e81610259565b8114610278575f80fd5b50565b5f8135905061028981610265565b92915050565b5f602082840312156102a4576102a3610255565b5b5f6102b18482850161027b565b91505092915050565b6102c381610259565b82525050565b5f6020820190506102dc5f8301846102ba565b92915050565b7f4e487b71000000000000000000000000000000000000000000000000000000005f52601160045260245ffd5b5f61031982610259565b915061032483610259565b9250828201905060ff81111561033d5761033c6102e2565b5b92915050565b5f61034d82610259565b915061035883610259565b9250828203905060ff811115610371576103706102e2565b5b92915050565b5f82825260208201905092915050565b7f43616e277420646976696465206279207a65726f0000000000000000000000005f82015250565b5f6103bb601483610377565b91506103c682610387565b602082019050919050565b5f6020820190508181035f8301526103e8816103af565b9050919050565b7f4e487b71000000000000000000000000000000000000000000000000000000005f52601260045260245ffd5b5f61042682610259565b915061043183610259565b925082610441576104406103ef565b5b828204905092915050565b5f61045682610259565b915061046183610259565b925082820261046f81610259565b9150808214610481576104806102e2565b5b509291505056fea26469706673582212202e3ab26b16e88005dc4f529c12e1c1512fc5587d10a043b8448b04900f84a0ad64736f6c634300081a0033",
					"opcodes": "PUSH1 0x80 PUSH1 0x40 MSTORE CALLVALUE DUP1 ISZERO PUSH1 0xE JUMPI PUSH0 DUP1 REVERT JUMPDEST POP PUSH1 0x40 MLOAD PUSH2 0x572 CODESIZE SUB DUP1 PUSH2 0x572 DUP4 CODECOPY DUP2 DUP2 ADD PUSH1 0x40 MSTORE DUP2 ADD SWAP1 PUSH1 0x2E SWAP2 SWAP1 PUSH1 0x81 JUMP JUMPDEST DUP1 PUSH0 DUP1 PUSH2 0x100 EXP DUP2 SLOAD DUP2 PUSH1 0xFF MUL NOT AND SWAP1 DUP4 PUSH1 0xFF AND MUL OR SWAP1 SSTORE POP POP PUSH1 0xA7 JUMP JUMPDEST PUSH0 DUP1 REVERT JUMPDEST PUSH0 PUSH1 0xFF DUP3 AND SWAP1 POP SWAP2 SWAP1 POP JUMP JUMPDEST PUSH1 0x63 DUP2 PUSH1 0x50 JUMP JUMPDEST DUP2 EQ PUSH1 0x6C JUMPI PUSH0 DUP1 REVERT JUMPDEST POP JUMP JUMPDEST PUSH0 DUP2 MLOAD SWAP1 POP PUSH1 0x7B DUP2 PUSH1 0x5C JUMP JUMPDEST SWAP3 SWAP2 POP POP JUMP JUMPDEST PUSH0 PUSH1 0x20 DUP3 DUP5 SUB SLT ISZERO PUSH1 0x93 JUMPI PUSH1 0x92 PUSH1 0x4C JUMP JUMPDEST JUMPDEST PUSH0 PUSH1 0x9E DUP5 DUP3 DUP6 ADD PUSH1 0x6F JUMP JUMPDEST SWAP2 POP POP SWAP3 SWAP2 POP POP JUMP JUMPDEST PUSH2 0x4BE DUP1 PUSH2 0xB4 PUSH0 CODECOPY PUSH0 RETURN INVALID PUSH1 0x80 PUSH1 0x40 MSTORE CALLVALUE DUP1 ISZERO PUSH2 0xF JUMPI PUSH0 DUP1 REVERT JUMPDEST POP PUSH1 0x4 CALLDATASIZE LT PUSH2 0x60 JUMPI PUSH0 CALLDATALOAD PUSH1 0xE0 SHR DUP1 PUSH4 0x2067E6A EQ PUSH2 0x64 JUMPI DUP1 PUSH4 0x7624B86 EQ PUSH2 0x80 JUMPI DUP1 PUSH4 0xECA58C3 EQ PUSH2 0x9C JUMPI DUP1 PUSH4 0x4E70B1DC EQ PUSH2 0xB8 JUMPI DUP1 PUSH4 0x67E0BADB EQ PUSH2 0xD6 JUMPI DUP1 PUSH4 0x8A7BE533 EQ PUSH2 0xF4 JUMPI JUMPDEST PUSH0 DUP1 REVERT JUMPDEST PUSH2 0x7E PUSH1 0x4 DUP1 CALLDATASIZE SUB DUP2 ADD SWAP1 PUSH2 0x79 SWAP2 SWAP1 PUSH2 0x28F JUMP JUMPDEST PUSH2 0x110 JUMP JUMPDEST STOP JUMPDEST PUSH2 0x9A PUSH1 0x4 DUP1 CALLDATASIZE SUB DUP2 ADD SWAP1 PUSH2 0x95 SWAP2 SWAP1 PUSH2 0x28F JUMP JUMPDEST PUSH2 0x147 JUMP JUMPDEST STOP JUMPDEST PUSH2 0xB6 PUSH1 0x4 DUP1 CALLDATASIZE SUB DUP2 ADD SWAP1 PUSH2 0xB1 SWAP2 SWAP1 PUSH2 0x28F JUMP JUMPDEST PUSH2 0x17E JUMP JUMPDEST STOP JUMPDEST PUSH2 0xC0 PUSH2 0x1FA JUMP JUMPDEST PUSH1 0x40 MLOAD PUSH2 0xCD SWAP2 SWAP1 PUSH2 0x2C9 JUMP JUMPDEST PUSH1 0x40 MLOAD DUP1 SWAP2 SUB SWAP1 RETURN JUMPDEST PUSH2 0xDE PUSH2 0x20A JUMP JUMPDEST PUSH1 0x40 MLOAD PUSH2 0xEB SWAP2 SWAP1 PUSH2 0x2C9 JUMP JUMPDEST PUSH1 0x40 MLOAD DUP1 SWAP2 SUB SWAP1 RETURN JUMPDEST PUSH2 0x10E PUSH1 0x4 DUP1 CALLDATASIZE SUB DUP2 ADD SWAP1 PUSH2 0x109 SWAP2 SWAP1 PUSH2 0x28F JUMP JUMPDEST PUSH2 0x21E JUMP JUMPDEST STOP JUMPDEST DUP1 PUSH0 DUP1 DUP3 DUP3 DUP3 SWAP1 SLOAD SWAP1 PUSH2 0x100 EXP SWAP1 DIV PUSH1 0xFF AND PUSH2 0x12C SWAP2 SWAP1 PUSH2 0x30F JUMP JUMPDEST SWAP3 POP PUSH2 0x100 EXP DUP2 SLOAD DUP2 PUSH1 0xFF MUL NOT AND SWAP1 DUP4 PUSH1 0xFF AND MUL OR SWAP1 SSTORE POP POP JUMP JUMPDEST DUP1 PUSH0 DUP1 DUP3 DUP3 DUP3 SWAP1 SLOAD SWAP1 PUSH2 0x100 EXP SWAP1 DIV PUSH1 0xFF AND PUSH2 0x163 SWAP2 SWAP1 PUSH2 0x343 JUMP JUMPDEST SWAP3 POP PUSH2 0x100 EXP DUP2 SLOAD DUP2 PUSH1 0xFF MUL NOT AND SWAP1 DUP4 PUSH1 0xFF AND MUL OR SWAP1 SSTORE POP POP JUMP JUMPDEST PUSH0 DUP2 PUSH1 0xFF AND SUB PUSH2 0x1C3 JUMPI PUSH1 0x40 MLOAD PUSH32 0x8C379A000000000000000000000000000000000000000000000000000000000 DUP2 MSTORE PUSH1 0x4 ADD PUSH2 0x1BA SWAP1 PUSH2 0x3D1 JUMP JUMPDEST PUSH1 0x40 MLOAD DUP1 SWAP2 SUB SWAP1 REVERT JUMPDEST DUP1 PUSH0 DUP1 DUP3 DUP3 DUP3 SWAP1 SLOAD SWAP1 PUSH2 0x100 EXP SWAP1 DIV PUSH1 0xFF AND PUSH2 0x1DF SWAP2 SWAP1 PUSH2 0x41C JUMP JUMPDEST SWAP3 POP PUSH2 0x100 EXP DUP2 SLOAD DUP2 PUSH1 0xFF MUL NOT AND SWAP1 DUP4 PUSH1 0xFF AND MUL OR SWAP1 SSTORE POP POP JUMP JUMPDEST PUSH0 DUP1 SLOAD SWAP1 PUSH2 0x100 EXP SWAP1 DIV PUSH1 0xFF AND DUP2 JUMP JUMPDEST PUSH0 DUP1 PUSH0 SWAP1 SLOAD SWAP1 PUSH2 0x100 EXP SWAP1 DIV PUSH1 0xFF AND SWAP1 POP SWAP1 JUMP JUMPDEST DUP1 PUSH0 DUP1 DUP3 DUP3 DUP3 SWAP1 SLOAD SWAP1 PUSH2 0x100 EXP SWAP1 DIV PUSH1 0xFF AND PUSH2 0x23A SWAP2 SWAP1 PUSH2 0x44C JUMP JUMPDEST SWAP3 POP PUSH2 0x100 EXP DUP2 SLOAD DUP2 PUSH1 0xFF MUL NOT AND SWAP1 DUP4 PUSH1 0xFF AND MUL OR SWAP1 SSTORE POP POP JUMP JUMPDEST PUSH0 DUP1 REVERT JUMPDEST PUSH0 PUSH1 0xFF DUP3 AND SWAP1 POP SWAP2 SWAP1 POP JUMP JUMPDEST PUSH2 0x26E DUP2 PUSH2 0x259 JUMP JUMPDEST DUP2 EQ PUSH2 0x278 JUMPI PUSH0 DUP1 REVERT JUMPDEST POP JUMP JUMPDEST PUSH0 DUP2 CALLDATALOAD SWAP1 POP PUSH2 0x289 DUP2 PUSH2 0x265 JUMP JUMPDEST SWAP3 SWAP2 POP POP JUMP JUMPDEST PUSH0 PUSH1 0x20 DUP3 DUP5 SUB SLT ISZERO PUSH2 0x2A4 JUMPI PUSH2 0x2A3 PUSH2 0x255 JUMP JUMPDEST JUMPDEST PUSH0 PUSH2 0x2B1 DUP5 DUP3 DUP6 ADD PUSH2 0x27B JUMP JUMPDEST SWAP2 POP POP SWAP3 SWAP2 POP POP JUMP JUMPDEST PUSH2 0x2C3 DUP2 PUSH2 0x259 JUMP JUMPDEST DUP3 MSTORE POP POP JUMP JUMPDEST PUSH0 PUSH1 0x20 DUP3 ADD SWAP1 POP PUSH2 0x2DC PUSH0 DUP4 ADD DUP5 PUSH2 0x2BA JUMP JUMPDEST SWAP3 SWAP2 POP POP JUMP JUMPDEST PUSH32 0x4E487B7100000000000000000000000000000000000000000000000000000000 PUSH0 MSTORE PUSH1 0x11 PUSH1 0x4 MSTORE PUSH1 0x24 PUSH0 REVERT JUMPDEST PUSH0 PUSH2 0x319 DUP3 PUSH2 0x259 JUMP JUMPDEST SWAP2 POP PUSH2 0x324 DUP4 PUSH2 0x259 JUMP JUMPDEST SWAP3 POP DUP3 DUP3 ADD SWAP1 POP PUSH1 0xFF DUP2 GT ISZERO PUSH2 0x33D JUMPI PUSH2 0x33C PUSH2 0x2E2 JUMP JUMPDEST JUMPDEST SWAP3 SWAP2 POP POP JUMP JUMPDEST PUSH0 PUSH2 0x34D DUP3 PUSH2 0x259 JUMP JUMPDEST SWAP2 POP PUSH2 0x358 DUP4 PUSH2 0x259 JUMP JUMPDEST SWAP3 POP DUP3 DUP3 SUB SWAP1 POP PUSH1 0xFF DUP2 GT ISZERO PUSH2 0x371 JUMPI PUSH2 0x370 PUSH2 0x2E2 JUMP JUMPDEST JUMPDEST SWAP3 SWAP2 POP POP JUMP JUMPDEST PUSH0 DUP3 DUP3 MSTORE PUSH1 0x20 DUP3 ADD SWAP1 POP SWAP3 SWAP2 POP POP JUMP JUMPDEST PUSH32 0x43616E277420646976696465206279207A65726F000000000000000000000000 PUSH0 DUP3 ADD MSTORE POP JUMP JUMPDEST PUSH0 PUSH2 0x3BB PUSH1 0x14 DUP4 PUSH2 0x377 JUMP JUMPDEST SWAP2 POP PUSH2 0x3C6 DUP3 PUSH2 0x387 JUMP JUMPDEST PUSH1 0x20 DUP3 ADD SWAP1 POP SWAP2 SWAP1 POP JUMP JUMPDEST PUSH0 PUSH1 0x20 DUP3 ADD SWAP1 POP DUP2 DUP2 SUB PUSH0 DUP4 ADD MSTORE PUSH2 0x3E8 DUP2 PUSH2 0x3AF JUMP JUMPDEST SWAP1 POP SWAP2 SWAP1 POP JUMP JUMPDEST PUSH32 0x4E487B7100000000000000000000000000000000000000000000000000000000 PUSH0 MSTORE PUSH1 0x12 PUSH1 0x4 MSTORE PUSH1 0x24 PUSH0 REVERT JUMPDEST PUSH0 PUSH2 0x426 DUP3 PUSH2 0x259 JUMP JUMPDEST SWAP2 POP PUSH2 0x431 DUP4 PUSH2 0x259 JUMP JUMPDEST SWAP3 POP DUP3 PUSH2 0x441 JUMPI PUSH2 0x440 PUSH2 0x3EF JUMP JUMPDEST JUMPDEST DUP3 DUP3 DIV SWAP1 POP SWAP3 SWAP2 POP POP JUMP JUMPDEST PUSH0 PUSH2 0x456 DUP3 PUSH2 0x259 JUMP JUMPDEST SWAP2 POP PUSH2 0x461 DUP4 PUSH2 0x259 JUMP JUMPDEST SWAP3 POP DUP3 DUP3 MUL PUSH2 0x46F DUP2 PUSH2 0x259 JUMP JUMPDEST SWAP2 POP DUP1 DUP3 EQ PUSH2 0x481 JUMPI PUSH2 0x480 PUSH2 0x2E2 JUMP JUMPDEST JUMPDEST POP SWAP3 SWAP2 POP POP JUMP INVALID LOG2 PUSH5 0x6970667358 0x22 SLT KECCAK256 0x2E GASPRICE 0xB2 PUSH12 0x16E88005DC4F529C12E1C151 0x2F 0xC5 PC PUSH30 0x10A043B8448B04900F84A0AD64736F6C634300081A003300000000000000 "
				},
				"gasEstimates": {
					"creation": {
						"codeDepositCost": "242800",
						"executionCost": "infinite",
						"totalCost": "infinite"
					},
					"external": {
						"add(uint8)": "infinite",
						"divide(uint8)": "infinite",
						"getNum()": "2539",
						"multiply(uint8)": "infinite",
						"num()": "2507",
						"subtract(uint8)": "infinite"
					}
				},
				"methodIdentifiers": {
					"add(uint8)": "02067e6a",
					"divide(uint8)": "0eca58c3",
					"getNum()": "67e0badb",
					"multiply(uint8)": "8a7be533",
					"num()": "4e70b1dc",
					"subtract(uint8)": "07624b86"
				}
			},
			"storageLayout": {
				"storage": [
					{
						"astId": 3,
						"contract": "contracts/Arithmetic.sol:Arithmetic",
						"label": "num",
						"offset": 0,
						"slot": "0",
						"type": "t_uint8"
					}
				],
				"types": {
					"t_uint8": {
						"encoding": "inplace",
						"label": "uint8",
						"numberOfBytes": "1"
					}
				}
			},
			"userdoc": {
				"kind": "user",
				"methods": {},
				"version": 1
			}
		}
	}
}